:020000040800F2
:1000000000600020DD4300082B3A0008313A000868
:10001000373A00083D3A0008433A00080000000063
:10002000000000000000000000000000493A000845
:10003000553A000800000000613A00086D3A0008D7
:1000400025440008254400082544000825440008EC
:1000500025440008254400082544000825440008DC
:10006000254400082544000825440008793A000882
:1000700025440008254400082544000825440008BC
:10008000254400082544000825440008000000001D
:1000900000000000000000000000000025440008EF
:1000A000254400082544000825440008254400088C
:1000B000254400082544000825440008254400087C
:1000C000254400082544000825440008254400086C
:1000D00025440008853A000825440008093B00082B
:1000E000254400082544000825440008254400084C
:1000F000254400082544000800000000000000001E
:10010000000000000000000025440008254400080D
:10011000254400082544000825440008453D000802
:10012000254400082544000825440008254400080B
:10013000254400080000000000000000000000004E
:1001400000000000000000000000000000000000AF
:10015000000000000000000000000000000000009F
:10016000000000000000000000000000000000008F
:10017000000000000000000000000000000000007F
:10018000000000000000000000000000000000006F
:10019000000000000000000000000000000000005F
:1001A000000000000000000000000000000000004F
:1001B000000000000000000000000000000000003F
:1001C000000000000000000000000000000000002F
:1001D000000000000000000000000000000000001F
:0401E0005FF808F1CB
:1001E40010B5054C237833B9044B13B10448AFF36D
:1001F40000800123237010BDD00000200000000007
:10020400D84E000808B5034B1BB103490348AFF3AC
:10021400008008BD00000000D4000020D84E000873
:1002240080B483B000AF786000BF194BDB6803F083
:100234000103002BF9D1164BDB6803F02003002BDC
:1002440002D0134B2022DA60114B1B69104A43F091
:10025400020313610E4A7B6853610D4B1B690C4A00
:1002640043F04003136100BF094BDB6803F0200334
:10027400002BF9D0064B2022DA60054B1B69044A97
:1002840023F00203136100BF0C37BD4680BC7047E6
:100294000020024080B400AF044B054A5A60034B6F
:1002A400044A5A6000BFBD4680BC7047002002402B
:1002B40023016745AB89EFCD80B400AF044B1B69C4
:1002C400034A43F08003136100BFBD4680BC7047FE
:1002D4000020024080B483B000AF7860396000BF72
:1002E400204BDB6803F00103002BF9D11D4BDB68C5
:1002F40003F02003002B02D01A4B2022DA60194BA2
:100304001B69184A43F0010313617B683A6892B28F
:100314001A8000BF134BDB6803F02003002BF9D0D5
:10032400104B2022DA607B6802337B603B681B0C35
:100334003B607B683A6892B21A8000BF094BDB6865
:1003440003F02003002BF9D0064B2022DA60054B82
:100354001B69044A23F00103136100BF0C37BD4637
:1003640080BC70470020024080B584B000AF72B6F4
:1003740000BFFFF78FFF0023FB601E4BBB604FF4F1
:10038400CE737B601C4B3B601C4803F0F1FE7B6822
:10039400002219461A4803F043FF184803F0E8FE08
:1003A4003B681B6800221946164803F039FFB868F9
:1003B400FFF736FF0023FB600EE0FB689A00BB6882
:1003C400D018FB689B003A6813441B681946FFF772
:1003D40081FFFB680133FB607B689B08FA689A42E3
:1003E400EBD3FFF769FF62B600BF0123184610374D
:1003F400BD4680BD00E40108F00B0020F04E00086B
:10040400F84E0008004F000880B485B000AF002308
:10041400FB604FF4CE73BB600F4B7B600F4B3B60B4
:100424000023FB600CE0FB689B007A681A44FB68BD
:100434009B0039680B4412681A60FB680133FB6047
:10044400BB689B08FA689A42EDD301231846143717
:10045400BD4680BC704700BF00E40108F00B0020DB
:1004640080B586B000AFF860B9607A60FB681B683D
:100474007B617A69BB689A4205D37A697B689A4240
:1004840001D87B691DE0114B00221A70104803F05B
:100494006FFEFB68002219460E4803F0C1FE0C48AB
:1004A40003F066FE7B69002219460B4803F0B8FE90
:1004B400074803F05DFE00220849094803F0B0FE36
:1004C400BB6818461837BD4680BD00BF0000002039
:1004D400F04E0008084F0008204F000800EC010807
:1004E400344F000880B500AF3A4B5B684FF480721C
:1004F40000211846FFF7B4FF0346364A1360354B14
:10050400DB684FF47A7201211846FFF7A9FF03460E
:10051400304A93602F4B5B694FF47A72012118467D
:10052400FFF79EFF03462B4A13612A4BDB694FF406
:100534007A7201211846FFF793FF0346254A936117
:10054400244B5B6A4FF47A7201211846FFF788FF47
:100554000346204A13621F4BDB6A4FF47A7201216F
:100564001846FFF77DFF03461A4A9362194B5B6BEB
:100574004FF47A7201211846FFF772FF0346154AB9
:100584001363144BDB6B4FF47A7201211846FFF7A7
:1005940067FF03460F4A93630E4B5B6C4FF47A720A
:1005A40001211846FFF75CFF03460A4A1364094B0E
:1005B400DB6C4FF47A7201211846FFF751FF0346B2
:1005C400044A9364044803F0D3FD044803F044FD53
:1005D40000BF80BD04000020F04E0008F051000868
:1005E40080B500AF334B5B684FF48072002118462E
:1005F400FFF736FF03462F4A13602E4BDB680A22AF
:1006040001211846FFF72CFF03462A4A9360294B21
:100614005B694FF47A7201211846FFF721FF034604
:10062400244A1361234BDB694FF47A620121184693
:10063400FFF716FF03461F4A93611E4B5B6A4FF494
:100644007A6201211846FFF70BFF0346194A136229
:10065400184BDB6A42F2107200211846FFF700FFC4
:100664000346144A9362134B5B6B42F210720021EF
:100674001846FFF7F5FE03460E4A13630D4BDB6B7A
:10068400642200211846FFF7EBFE0346094A9363F0
:10069400084B5B6C032201211846FFF7E1FE034679
:1006A400044A1364044803F063FD044803F0D4FCD3
:1006B40000BF80BD54000020F04E000868520008BE
:1006C40080B500AF184B5B684FF480720021184668
:1006D400FFF7C6FE0346144A1360134BDB68134A44
:1006E40000211846FFF7BCFE03460F4A93600E4BE9
:1006F4005B690E4A00211846FFF7B2FE03460A4A18
:100704001361094BDB69012200211846FFF7A8FE9B
:100714000346054A9361064803F02AFD054803F0A1
:100724009BFC00BF80BD00BF9C00002000286BEE36
:10073400F04E0008F852000880B500AF1F4B0122AC
:100744001A701F4803F014FD1E4803F085FC642052
:1007540000F00EFB72B600BF412003F01FFCFFF750
:10076400AFFF422003F01AFCFFF73AFF432003F0E7
:1007740015FCFFF7B7FE442003F010FC62B600BF7F
:10078400582003F00BFC0D4B1B78002B0AD10C48AE
:1007940003F0EEFC0C4803F05FFC084B01221A70D6
:1007A400002309E0064803F0E3FC084803F054FC86
:1007B400024B01221A700123184680BD000000205C
:1007C400F04E0008405300084453000860530008EA
:1007D400B0B584B000AF7860A04B1B68184600F039
:1007E40039FBB8600023FB7312E0FB7BBA68134447
:1007F4009A4A1268F97B1C78984813461B011344E3
:1008040003440B44043322461A70FB7B0133FB730D
:10081400FB7BBA6813441B78002BE6D18F4B1A6814
:10082400F97B8E4813461B01134403440B440433E1
:100834003A221A70FB7B0133FB730023BB7326E05F
:10084400FB7B0F2B10D8BB7B7A681344834A126856
:10085400F97B1C78814813461B01134403440B4461
:10086400043322461A700CE07C4B1A68F97B7B48EF
:1008740013461B01134403440B44043300221A702F
:100884000BE0FB7B0133FB73BB7B0133BB73BB7B93
:100894007A6813441B78002BD2D10EE06F4B1A6890
:1008A400F97B6E4813461B01134403440B44043381
:1008B40020221A70FB7B0133FB73FB7B0F2BEDD9DA
:1008C400674803F055FCFB7B00221946654803F09A
:1008D400A7FC624B1A68F97B604813461B0113445A
:1008E40003440B44043300221A705C4B1B6801332D
:1008F4005A4A1360594B1B68172B40F29E80002301
:10090400FB7393E0FB7B184600F0A4FAB860002365
:100914007B7311E07B7BBA681344FA7B797B1C7888
:100924004E4813461B01134403440B44043322462C
:100934001A707B7B01337B737B7BBA6813441B780F
:10094400002BE7D1FA7B797B444813461B011344FF
:1009540003440B4404333A221A707B7B0133BB7388
:1009640035E0FB7B092B17D9FB7B03F10A01BC7B28
:10097400FA7BB87B394D0B461B010B442B442344B3
:1009840004331C78354913461B0113440B440344B8
:10099400043322461A7017E0FB7B03F10A01BB7B88
:1009A4005C1CFA7BB87B2D4D0B461B010B442B447E
:1009B400234404331C78294913461B0113440B4474
:1009C4000344043322461A70BB7B0133BB73FA7BA6
:1009D400B97B224813461B01134403440B440433DC
:1009E4001B78002BBDD1BB7B013BBB730DE0FA7BB5
:1009F400B97B1A4813461B01134403440B440433C4
:100A040020221A70BB7B0133BB73BB7B0F2BEED947
:100A1400FA7BB97B114813461B01134403440B446E
:100A2400043300221A70FB7B0133FB73FB7B0D2B19
:100A34007FF668AF094B0E221A60FFF795FC084851
:100A440003F096FB054B1B6800221946064803F089
:100A5400E7FB00BF1037BD46B0BD00BFF00B002060
:100A64007C540008845400088C54000880B500AFFE
:100A74007D4803F07DFB7D4B1B68002219467C48B2
:100A840003F0CEFB784803F073FB784B9B6800229D
:100A94001946784803F0C4FB734803F069FB734BB1
:100AA4001B6900221946744803F0BAFB6E4803F030
:100AB4005FFB6E4B9B6900221946704803F0B0FB44
:100AC400694803F055FB694B1B6A002219466C48C0
:100AD40003F0A6FB644803F04BFB644B9B6A0022C3
:100AE4001946684803F09CFB5F4803F041FB5F4BE9
:100AF4001B6B00221946644803F092FB5A4803F02A
:100B040037FB5A4B9B6B00221946604803F088FB65
:100B1400554803F02DFB554B1B6C002219465C48CD
:100B240003F07EFB504803F023FB504B9B6C0022E8
:100B34001946584803F074FB322000F019F94A486A
:100B440003F016FB544B1B6800221946534803F06C
:100B540067FB454803F00CFB4F4B9B68002219468A
:100B64004F4803F05DFB404803F002FB4A4B1B690E
:100B7400002219464B4803F053FB3B4803F0F8FAB4
:100B8400454B9B6900221946474803F049FB364808
:100B940003F0EEFA404B1B6A00221946434803F067
:100BA4003FFB314803F0E4FA3B4B9B6B00221946B0
:100BB4003F4803F035FB2C4803F0DAFA364B9B6AC6
:100BC400002219463B4803F02BFB274803F0D0FAD8
:100BD400314B1B6B00221946374803F021FB224896
:100BE40003F0C6FA2C4B1B6C00221946334803F061
:100BF40017FB322000F0BCF81B4803F0B9FA304B65
:100C04001B68002219462F4803F00AFB164803F01C
:100C1400AFFA2B4B9B68002219462B4803F000FBCC
:100C2400114803F0A5FA264B1B69002219462748F0
:100C340003F0F6FA0C4803F09BFA214B9B6900225F
:100C44001946234803F0ECFA074803F091FA214BC4
:100C54001B6800221946204803F0E2FA322000F013
:100C640087F800BF80BD00BF905400080400002036
:100C740098540008AC540008CC540008EC54000804
:100C84000C5500082C5500084C5500086C550008FC
:100C94008C550008AC55000854000020C4550008C9
:100CA400D8550008F45500080456000814560008E6
:100CB4002456000834560008485600085C560008BC
:100CC4009C0000207C56000898560008C056000876
:100CD400E4560008CC000020F056000880B487B029
:100CE40000AF786000237B617B68012B01D1012375
:100CF4007B617B68022B01D102237B617B68032B20
:100D040001D112237B617B68032B0AD9154B1B6825
:100D1400154AA2FB03239B0C7A68033A02FB03F3F4
:100D24007B61124B9B683B613B69FB600F4B9B688B
:100D3400BB60BB681A46FB689A4205D30B4B5B68E1
:100D44005A1C3B6913443B61BB68FB603B69BA684E
:100D54009A1A7B699A42E9D300BF00BF1C37BD468B
:100D640080BC7047CC00002083DE1B4310E000E011
:100D740080B582B000AF786006E04FF47A70FFF778
:100D8400ADFF7B68013B7B607B68002BF5D100BF26
:100D940000BF0837BD4680BD80B5C2B000AF07F5BF
:100DA4008473A3F5827318600846114607F58473AB
:100DB400A3F2051302461A7007F58473A3F583732F
:100DC4000A461A7007F58473A3F58073204A1846FF
:100DD40011464FF480731A4604F06EF807F58473D5
:100DE400A3F582731B6807F58472A2F58272591CFD
:100DF40011601A7807F58473A3F583731B78534045
:100E0400DBB2194607F58473A3F5837307F584727F
:100E1400A2F58072525C1A7007F58473A3F205136D
:100E240007F58472A2F205121278013A1A7007F5D6
:100E34008473A3F205131B78002BCFD107F58473B9
:100E4400A3F583731B78184607F58477BD4680BDE8
:100E54000457000880B489B000AF78607B68BB6138
:100E6400BB69002B02DA7B685B427B600023FB7763
:100E74007A68314B83FB02139910D317C91A0B46B6
:100E84009B000B445B00D11ACBB297F91F10CAB276
:100E94000132D2B2FA773033DAB201F120033B44A3
:100EA40003F8182C7B68244A82FB03129210DB1788
:100EB400D31A7B607B68002BDADCBB69002B0BDA6E
:100EC40097F91F20D3B20133DBB2FB7713462033EB
:100ED4003B442D2203F8182C97F91F3020333B4450
:100EE400002203F8182C0023BB7716E097F91F3073
:100EF4005A1E97F91E3020323A4412F8181C0F4A31
:100F0400D15497F91F30DBB2013BDBB2FB7797F981
:100F14001E30DBB20133DBB2BB7797F91F30002BF5
:100F2400E4D197F91E30054A0021D154034B1846E9
:100F34002437BD4680BC704767666666C0090020DA
:100F440080B48FB000AF78600B46FB707B683B6366
:100F54003B6B002B02DA7B685B427B60002387F8E3
:100F640037307A68644B83FB02139910D317C91A7C
:100F74000B469B000B445B00D11ACBB297F9371098
:100F8400CAB20132D2B287F837203033DAB201F173
:100F940038033B4403F81C2C7B68574A82FB03123A
:100FA4009210DB17D31A7B607B68002BD9DC97F98E
:100FB400373038333B44002203F81C2C97F9373080
:100FC400012B0DDC97F9373038333B44302203F8DA
:100FD4001C2C97F93730DBB20133DBB287F837309A
:100FE40097F93730022B10DCFB78012B0DD997F9D8
:100FF400373038333B44302203F81C2C97F9373010
:10100400DBB20133DBB287F83730002387F83630A0
:10101400002387F835302CE097F93620FB789A4284
:101024000DD197F9363038333B442E2203F8302C57
:1010340097F93630DBB20133DBB287F8363097F9F3
:10104400352097F9363038323A4412F81C2C3833AC
:101054003B4403F8302C97F93530DBB20133DBB273
:1010640087F8353097F93630DBB20133DBB287F8D5
:10107400363097F9352097F937309A42CCDB3B6B01
:10108400002B0CDA97F93620D3B20133DBB287F8A0
:101094003630134638333B442D2203F8302C0023DA
:1010A40087F8373018E097F936305A1E97F93730F9
:1010B40038323A4412F8301C104AD15497F9363079
:1010C400DBB2013BDBB287F8363097F93730DBB25D
:1010D4000133DBB287F8373097F93630002BE2D191
:1010E40097F93730054A0021D154044B18463C3750
:1010F400BD4680BC704700BF67666666D0090020A5
:1011040080B483B000AF0346FB80B7F90630002BF0
:1011140001D100230FE0B7F90630002B02DDB7F947
:10112400063008E0B7F90630002B04DAFB885B428E
:101134009BB21BB2FFE718460C37BD4680BC704714
:1011440080B483B000AF78607B68002B01D10023AA
:101154000AE07B68002B01DD7B6805E07B68002BDF
:1011640002DA7B685B42FFE718460C37BD4680BC59
:101174007047000080B485B000AF78600123FB7332
:101184007A6813469B0013445B007B600C4B1B681E
:101194007A68D31A97F90F2003FB02F2084B1B68F5
:1011A4001344074A1360064B1B68064A82FB03126A
:1011B4009210DB17D31A18461437BD4680BC70470B
:1011C400E40900206766666680B485B000AF786085
:1011D4000123FB737A6813469B0013445B007B6016
:1011E4000C4B1B687A68D31A97F90F2003FB02F2A1
:1011F400084B1B681344074A1360064B1B68064AD6
:1012040082FB03129210DB17D31A18461437BD461B
:1012140080BC7047E80900206766666680B485B0C4
:1012240000AF78600123FB737A6813469B00134474
:101234005B007B600C4B1B687A68D31A97F90F200C
:1012440003FB02F2084B1B681344074A1360064B66
:101254001B68064A82FB03129210DB17D31A184646
:101264001437BD4680BC7047EC090020676666668B
:1012740080B485B000AF78600123FB737A681346AD
:101284009B0013445B007B600C4B1B687A68D31A89
:1012940097F90F2003FB02F2084B1B681344074A1B
:1012A4001360064B1B68064A82FB03129210DB177D
:1012B400D31A18461437BD4680BC7047F009002085
:1012C4006766666680B485B000AF78600123FB73FF
:1012D4007A6813469B0013445B007B600C4B1B68CD
:1012E4007A68D31A97F90F2003FB02F2084B1B68A4
:1012F4001344074A1360064B1B68064A82FB031219
:101304009210DB17D31A18461437BD4680BC7047B9
:10131400F40900206766666680B485B000AF786023
:101324000123FB737A6813469B0013445B007B60C4
:101334000C4B1B687A68D31A97F90F2003FB02F24F
:10134400084B1B681344074A1360064B1B68064A84
:1013540082FB03129210DB17D31A18461437BD46CA
:1013640080BC7047F80900206766666680B485B063
:1013740000AF78600123FB737A6813469B00134423
:101384005B007B600C4B1B687A68D31A97F90F20BB
:1013940003FB02F2084B1B681344074A1360064B15
:1013A4001B68064A82FB03129210DB17D31A1846F5
:1013B4001437BD4680BC7047FC090020676666662A
:1013C40080B485B000AF78600123FB737A6813465C
:1013D4009B0013445B007B600C4B1B687A68D31A38
:1013E40097F90F2003FB02F2084B1B681344074ACA
:1013F4001360064B1B68064A82FB03129210DB172C
:10140400D31A18461437BD4680BC7047000A002022
:101414006766666680B485B000AF78600123FB73AD
:101424007A6813469B0013445B007B600C4B1B687B
:101434007A68D31A97F90F2003FB02F2084B1B6852
:101444001344074A1360064B1B68064A82FB0312C7
:101454009210DB17D31A18461437BD4680BC704768
:10146400040A00206766666680B485B000AF7860C1
:101474000123FB737A6813469B0013445B007B6073
:101484000C4B1B687A68D31A97F90F2003FB02F2FE
:10149400084B1B681344074A1360064B1B68064A33
:1014A40082FB03129210DB17D31A18461437BD4679
:1014B40080BC7047080A00206766666680B485B001
:1014C40000AF78607B6803F00703FB600C4BDB68BC
:1014D400BB60BA684FF6FF031340BB60FB681A0297
:1014E400BB68134343F0BF6343F40033BB60044A57
:1014F400BB68D36000BF1437BD4680BC704700BFD3
:1015040000ED00E080B400AF044BDB681B0A03F07D
:1015140007031846BD4680BC704700BF00ED00E0DD
:1015240080B483B000AF0346FB7197F90730002BFA
:101534000BDBFB7903F01F02064997F907305B09BF
:10154400012000FA02F241F8232000BF0C37BD4607
:1015540080BC704700E100E080B483B000AF034674
:101564003960FB7197F90730002B0ADB3B68DAB26C
:101574000C4997F907301201D2B20B4483F80023C7
:101584000AE03B68DAB20849FB7903F00F03043B35
:101594001201D2B20B441A7600BF0C37BD4680BC90
:1015A400704700BF00E100E000ED00E080B489B0C6
:1015B40000AFF860B9607A60FB6803F00703FB6171
:1015C400FB69C3F10703042B28BF0423BB61FB6938
:1015D4000433062B02D9FB69033B00E000237B6143
:1015E4004FF0FF32BB6902FA03F3DA43BB681A40D7
:1015F4007B699A404FF0FF317B6901FA03F3D943C9
:101604007B680B40134318462437BD4680BC7047A3
:1016140080B582B000AF78607B68013BB3F1807F16
:1016240001D301230FE00A4A7B68013B53600F2179
:101634004FF0FF30FFF790FF054B00229A60044BF8
:1016440007221A60002318460837BD4680BD00BF34
:1016540010E000E080B483B000AF786039607B684C
:101664004C3318460C37BD4680BC704780B483B0F9
:1016740000AF786039607B689B6823F400023B68A4
:101684001A437B689A6000BF0C37BD4680BC704724
:1016940080B489B000AFF860B9607A60FB682C331D
:1016A4001946BB6803F440734FF44072BA61BA69D7
:1016B40092FAA2F27A617A69B2FA82F2D2B2D34091
:1016C4009B000B44FB61FB691A68BB6803F01F03B2
:1016D4001F2101FA03F3DB431A407B6803F01F0167
:1016E400BB6803F01F0301FA03F31A43FB691A6092
:1016F40000BF2437BD4680BC704780B48DB000AFB6
:10170400F860B9607A60FB680C331946BB6803F073
:1017140000734FF00072BA61BA6992FAA2F27A6168
:101724007A69B2FA82F2D2B2D3409B000B44FB62D4
:10173400FB6A1A68BB6803F0F8734FF0F8713962FA
:10174400396A91FAA1F1F961F969B1FA81F1C9B281
:10175400CB40072101FA03F3DB431A40BB6803F0D3
:10176400F8734FF0F871B962B96A91FAA1F179622C
:10177400796AB1FA81F1C9B2CB40796801FA03F30D
:101784001A43FB6A1A6000BF3437BD4680BC7047F9
:1017940080B483B000AF78607B689B6843F001023B
:1017A4007B689A6000BF0C37BD4680BC704780B42C
:1017B40083B000AF78607B689B6843F004027B6869
:1017C4009A6000BF0C37BD4680BC704780B483B0BC
:1017D40000AF78607B689B6803F00403042B0CBFA4
:1017E40001230023DBB218460C37BD4680BC70478A
:1017F40080B483B000AF78607B689B6843F4A00238
:101804007B689A6000BF0C37BD4680BC70470000FF
:1018140080B483B000AF786039603B68013B0A4A0A
:10182400D35C1A467B6813441B683A68013A06493C
:101834008A5C11467A680A4443F00103136000BFCE
:101844000C37BD4680BC70475059000880B485B041
:1018540000AFF860B9607A60BB68013B0C4AD35CA6
:101864001A46FB6813441B6823F4804323F01003D7
:10187400BA68013A06498A5C1146FA680A44114674
:101884007A6813430B6000BF1437BD4680BC7047B1
:101894005059000880B485B000AFF860B9607A6030
:1018A400BB68013B0B4AD35C1A46FB6813441B68B4
:1018B40023F02002BB68013B0649CB5C1946FB6858
:1018C4000B4419467B6813430B6000BF1437BD46B5
:1018D40080BC70475059000880B485B000AFF860F0
:1018E400B9607A60BB68013B0B4AD35C1A46FB685B
:1018F40013441B6823F04002BB68013B0649CB5CE0
:101904001946FB680B4419467B6813430B6000BF00
:101914001437BD4680BC70475059000880B485B068
:1019240000AFF860B9607A60BB68013B0B4AD35CD6
:101934001A46FB6813441B6823F08002BB68013B12
:101944000649CB5C1946FB680B4419467B68134374
:101954000B6000BF1437BD4680BC70475059000867
:1019640080B485B000AFF860B9607A60BB68013BB1
:101974000B4AD35C1A46FB6813441B6823F4407279
:10198400BB68013B0649CB5C1946FB680B4419460E
:101994007B6813430B6000BF1437BD4680BC70479F
:1019A4005059000880B485B000AFF860B9607A601F
:1019B400BB68013B0B4AD35C1A46FB6813441B68A3
:1019C40023F44062BB68013B0649CB5C1946FB68C3
:1019D4000B4419467B6813430B6000BF1437BD46A4
:1019E40080BC70475059000880B485B000AFF860DF
:1019F400B9607A60BB68013B0B4AD35C1A46FB684A
:101A040013441B6823F44052BB68013B0649CB5C7A
:101A14001946FB680B4419467B6813430B6000BFEF
:101A24001437BD4680BC70475059000880B485B057
:101A340000AFF860B9607A60BB68013B0B4AD35CC5
:101A44001A46FB6813445B681B0C1B04BA68013A12
:101A540006498A5C1146FA680A4411467A681343B7
:101A64004B6000BF1437BD4680BC70475059000816
:101A740080B485B000AFF860B9607A603B60BB6940
:101A8400102B14D1BB68013B154AD35C1A46FB6882
:101A940013441A467B68D360BB68013B104AD35C8D
:101AA4001A46FB6813441A463B68936013E0BB680C
:101AB400013B0B4AD35C1A46FB6813441A467B6805
:101AC4009360BB68013B064AD35C1A46FB68134427
:101AD4001A463B68D36000BF1437BD4680BC7047CC
:101AE4005059000880B400AF044B1B68034A43F408
:101AF4008033136000BFBD4680BC704700100240B5
:101B040080B400AF064B1B6803F40033B3F5003F09
:101B14000CBF01230023DBB21846BD4680BC7047CE
:101B24000010024080B483B000AF7860064B5B685D
:101B340023F0030204497B6813434B6000BF0C3756
:101B4400BD4680BC704700BF0010024080B400AFA7
:101B5400034B5B6803F00C031846BD4680BC70471A
:101B64000010024080B483B000AF7860064B5B681D
:101B740023F0F00204497B6813434B6000BF0C3729
:101B8400BD4680BC704700BF0010024080B483B0E3
:101B940000AF7860064B5B6823F4E06204497B681D
:101BA40013434B6000BF0C37BD4680BC704700BF79
:101BB4000010024080B483B000AF7860064B5B68CD
:101BC40023F4605204497B6813434B6000BF0C3715
:101BD400BD4680BC704700BF0010024080B483B093
:101BE40000AF7860064B5B6823F4404204497B688D
:101BF40013434B6000BF0C37BD4680BC704700BF29
:101C04000010024080B400AF044B1B68034A43F049
:101C14008073136000BFBD4680BC70470010024053
:101C240080B400AF064B1B6803F00073B3F1007F70
:101C34000CBF01230023DBB21846BD4680BC7047AD
:101C44000010024080B483B000AF786039600D4B5F
:101C54005B6823F47C127B6803F440313B680B43DC
:101C6400084913434B60074BDB6A23F00F027B6880
:101C740003F00F0303491343CB6200BF0C37BD4687
:101C840080BC70470010024080B485B000AF78601B
:101C9400084B5A6907497B6813434B61054B5A69E2
:101CA4007B681340FB60FB6800BF1437BD4680BCF3
:101CB400704700BF0010024080B485B000AF786068
:101CC400084BDA6907497B681343CB61054BDA6932
:101CD4007B681340FB60FB6800BF1437BD4680BCC3
:101CE400704700BF0010024080B485B000AF786038
:101CF400084B9A6907497B6813438B61054B9A69C2
:101D04007B681340FB60FB6800BF1437BD4680BC92
:101D1400704700BF0010024080B483B000AF786009
:101D24007B681B6843F001027B681A6000BF0C37B4
:101D3400BD4680BC704780B483B000AF78607B68D8
:101D44001B6823F080027B681A6000BF0C37BD4615
:101D540080BC704780B483B000AF786039607B6822
:101D64005B6823F070023B681A437B685A6000BFCB
:101D74000C37BD4680BC704780B483B000AF786038
:101D84007B689B6823F080027B689A6000BF0C37F5
:101D9400BD4680BC704780B483B000AF78607B6878
:101DA400DB6843F001027B68DA6000BF0C37BD4694
:101DB40080BC704780B483B000AF78607B68DB6818
:101DC40043F400527B68DA6000BF0C37BD4680BC28
:101DD400704780B483B000AF78607B681B6923F4DC
:101DE40090427B681A617B685B6923F02A027B68F6
:101DF4005A6100BF0C37BD4680BC704780B483B0C5
:101E040000AF78607B68DB6843F020027B68DA60AF
:101E140000BF0C37BD4680BC704780B483B000AFB0
:101E240078607B68DB6843F080027B68DA6000BF1F
:101E34000C37BD4680BC704780B483B000AF786077
:101E440039607B689B68DA433B681B0A13409BB28A
:101E5400002B0CBF01230023DBB218460C37BD4610
:101E640080BC704780B483B000AF786039603B6851
:101E74001B0A9AB27B685A6100BF0C37BD4680BC0E
:101E84007047000080B400AF074B5B68064A23F03C
:101E9400E0635360044B5B68034A43F00073536090
:101EA40000BFBD4680BC70470000014080B500AF54
:101EB400104B1B88002B0AD10F4B1B680F4A93420F
:101EC40005D90F4802F054F90E4802F0C5F8094B41
:101ED40001221A800A4802F04BF90B4802F0BCF8C0
:101EE4006420FEF745FF094B4FF000621A6100BF02
:101EF40080BD00BFB4090020280A00208F0A0B000F
:101F0400045800080C58000818580008000801403C
:101F140080B400AF104B80221A610F4B40221A612B
:101F24000E4B4FF400421A610C4B4FF480421A617D
:101F34000A4B4FF400521A61084B4FF480521A6155
:101F4400064B4FF480721A61044B20221A6100BFC1
:101F5400BD4680BC704700BF00100140000C01402A
:101F640080B582B000AF7D4B1B88B3F5B67F02D33A
:101F74007B4B80221A61794B1B88B3F5B37F03D85E
:101F8400774B4FF400021A61744B9B8BB3F5B67F09
:101F940002D3734B40221A61704B9B8BB3F5B37F12
:101FA40003D86F4B4FF480021A616C4B1B8FB3F54F
:101FB400B67F03D36B4B4FF400421A61674B1B8F00
:101FC400B3F5B37F03D8674B4FF000421A61634BFC
:101FD400B3F85430B3F5B67F03D3624B4FF4804269
:101FE4001A615E4BB3F85430B3F5B37F03D85D4B3D
:101FF4004FF080421A61594BB3F87030B3F5B67F95
:1020040003D3584B4FF400521A61544BB3F8703059
:10201400B3F5B37F03D8534B4FF000521A614F4BC3
:10202400B3F88C30B3F5B67F03D34E4B4FF48052E4
:102034001A614A4BB3F88C30B3F5B37F03D8494BDC
:102044004FF080521A61454BB3F8A830B3F5B67F10
:1020540003D3444B4FF480721A61404BB3F8A83059
:10206400B3F5B37F03D83F4B4FF080721A613B4BFB
:10207400B3F8C430B3F5B67F02D33A4B20221A61C9
:10208400364BB3F8C430B3F5B37F03D8354B4FF4B4
:1020940000121A610023FB710023BB710023FB7142
:1020A40033E0FB79DBB219462C4A0B46DB005B1AA2
:1020B4009B0013441B88B3F5B77F0FD300F080FF58
:1020C400294B01221A70294802F052F8FB79DBB23D
:1020D400013300221946264802F0A2F8FB79DBB24C
:1020E40019461E4A0B46DB005B1A9B0013441B88EF
:1020F400B3F5B47F04D8BB79DBB20133DBB2BB7177
:10210400FB79DBB20133DBB2FB71FB79DBB2072B6A
:10211400C7D9154B1B78DBB2012B1AD1BB79DAB2C4
:10212400FB79DBB29A4214D1124B1B78DBB2002B41
:102134000FD1114B1B78DBB2002B0AD100F026FF24
:10214400094B00221A70094802F012F80B4801F0FA
:1021540083FF00BF0837BD4680BD00BFE00A0020F2
:1021640000100140000C0140B0090020285800086C
:1021740030580008B1090020B20900204058000876
:1021840080B582B000AF0023FB710023BB71002334
:10219400FB7187E05C4B5B881BB21846FEF7D0FFEF
:1021A40003465A4A82FB03125211DB179B1A03F2AD
:1021B4001712FB79DBB2184655490346DB001B1A9C
:1021C4009B000B441B889A4226DBFB79DBB2194641
:1021D4004F4A0B46DB005B1A9B00134418331B78F1
:1021E400002B2AD1FB79DBB218464A4B1A684849BE
:1021F4000346DB001B1A9B000B440C331A60FB796B
:10220400DBB21946424A0B46DB005B1A9B001344BF
:10221400183301221A7010E0FB79DBB219463C4AEC
:102224000B46DB005B1A9B001344183300221A7020
:10223400BB79DBB20133DBB2BB71FB79DBB219468C
:10224400334A0B46DB005B1A9B00134418331B789C
:10225400012B22D12F4B1A68FB79DBB218462C498B
:102264000346DB001B1A9B000B440C331B68D31A78
:10227400052B12D9284B01221A7000F0A1FE224B23
:1022840000221A72254801F073FFFB79DBB2013397
:1022940000221946224801F0C3FFFB79DBB2013367
:1022A400DBB2FB71FB79DBB2072B7FF673AF1A4B02
:1022B4001B78DBB2012B22D1BB79DAB2FB79DBB21A
:1022C4009A421CD1174B1B78DBB2002B17D1164B4B
:1022D4001B78DBB2002B12D100F058FE0E4B00220B
:1022E4001A70094B01221A720C4801F041FFFB7964
:1022F400DBB20133002219460C4801F091FF00BF04
:102304000837BD4680BD00BFC00B00201F85EB51C0
:10231400E00A00200C0A0020B10900202858000817
:102324005C580008B0090020B20900207058000869
:1023340080B500AF044B1B68B3F5616F01D9FFF79B
:10234400B5FD00BF80BD00BF240A002080B400AFEB
:102354002B4B1B889BB2B3F50C6F04D8294B4FF45D
:1023640000221A6147E0284B1B889BB21A46274B70
:102374001B889BB2D21A13469B0013441B01244AA8
:1023840082FB03125211DB17D31A224A13601C4B2F
:102394001B889BB21A4613469B0013445B001A46E3
:1023A4001D4B1B689A4203D9164B08221A6103E09D
:1023B400144B4FF400221A61174B1B68154A12681C
:1023C4001344154A1360104B1B889BB21A461346DC
:1023D4009B0013441B011A460F4B1B689A420AD2F6
:1023E4000A4B1B889BB21A4613469B0013441B01DD
:1023F4001A46094B1A6000BFBD4680BC704700BF37
:10240400C00B0020000C0140500E0020D80D00200D
:102414001F85EB51480E0020740A002080B582B05D
:1024240000AF1B491B48FFF707FD0346002B02D1F1
:102434000523FB7101E00023FB71FB79002B20D005
:10244400154BB3F9003040F2DC52934207DD124BD6
:1024540040F2B4521A80114AFB79137014E00E4B07
:10246400B3F900309BB201339BB21AB20A4B1A8003
:10247400094BB3F90030142B06D1084AFB791370C9
:1024840002E0054B00221A800837BD4680BD00BF1C
:102494000400040400100140780A0020730A00209C
:1024A40080B483B000AF094B1B78002B02D0084BDB
:1024B40000221A60054B1B78FB71044B00221A7032
:1024C400FB7918460C37BD4680BC7047730A002060
:1024D400240A002080B500AFFFF7A0FF714B1B68F2
:1024E4000133704A1360704B1B889BB2042B04D9D0
:1024F4006D4B00221A8000F0FFF86C4B1B889BB2D6
:10250400092B04D9FFF722FF684B00221A80684B7D
:102514001B889BB2632B13D9664B5B881BB218468E
:10252400FEF7EEFD0346002B04DC634B1B78DBB2A5
:10253400012B02D1614B00221A605D4B00221A80EC
:102544005F4B1B889BB2B3F57A7FC0F08C80FFF79A
:10255400EFFE5A4B1B680133584A1360594B1B68F2
:10256400032B02D8FFF7D4FC01E0FFF7F9FCFFF7D7
:1025740007FE534B00221A80534B1B881BB2012BBE
:102584000CDC514B1B881BB21846FEF7B9FD034601
:102594001A464E4B1B6813444C4A13604A4B1B8823
:1025A4001BB2022B0CDD484B1B881BB21846FEF7EE
:1025B400A7FD03461A46464B1B681344444A13605E
:1025C400444B1B78DBB2012B04D1434B1B68013312
:1025D400414A1360414B1B78DBB2012B04D1404BC1
:1025E4001B6801333E4A13603E4B1B78DBB2012B60
:1025F40004D13D4B1B6801333B4A1360314B1B68CC
:102604000133304A13602B4B1B7ADBB2002B03D10E
:10261400364B04221A6103E0344B4FF480221A61D2
:10262400254B1B78DBB2012B03D1304B04221A61FA
:1026340003E02E4B4FF480221A611E4B5B881BB2C1
:10264400022B08DD2A4B4FF4B4721A80294B40F256
:1026540045121A8007E0264B40F24F121A80254B90
:1026640040F21D121A80104B1B889BB201339AB2A0
:102674000D4B1A800D4B1B889BB201339AB20B4B46
:102684001A800B4B1B889BB201339AB2084B1A80F9
:102694000B4B1B889BB201339AB2094B1A8000BFC3
:1026A40080BD00BF140A0020F0000020EE000020CE
:1026B400EC000020C00B0020B0090020240A0020F8
:1026C400F20000200C0A0020DC0A0020280A002066
:1026D400300A0020710A00201C0A0020720A00201F
:1026E400200A0020180A0020100A002000140140CB
:1026F400500E0020D80D002080B586B000AF002316
:102704003B610023FB600023BB6000237B60934B91
:10271400DB8B9BB21A464FF4F02393FBF2F39AB28D
:102724008F4B1A808D4B9B899BB21A468D4B9B68AD
:1027340002FB03F3894AD28B92B2B3FBF2F3FB6040
:10274400FB687B607B681846FEF714FD0246864BE7
:102754001B681344844A1360844B1B881BB29BB2CE
:1027640001339BB21AB2814B1A80804B1B881BB277
:102774001F2B0EDD7C4B1B68002B00DA1F335B1113
:102784009AB27B4BDA80794B00221A80764B002276
:102794001A60724B5B899BB21A46724B1B6902FB2F
:1027A40003F36E4AD28B92B2B3FBF2F3FB60FB6885
:1027B4007B607B681846FEF707FD02466D4B1B687D
:1027C40013446C4A13606C4B1B881BB29BB20133DD
:1027D4009BB21AB2684B1A80674B1B881BB21F2B23
:1027E4000EDD644B1B68002B00DA1F335B119AB2B9
:1027F4005F4B9A80604B00221A805E4B00221A6065
:10280400564B1B899BB21A46564B9B6902FB03F33A
:10281400524AD28B92B2B3FBF2F33B613B69BB6089
:10282400BB681846FEF7FAFC0246544B1B68134477
:10283400524A1360524B1B881BB29BB201339BB2AA
:102844001AB24F4B1A804E4B1B881BB21F2B0EDD46
:102854004A4B1B68002B00DA1F335B119AB2494BB9
:102864001A80474B00221A80444B00221A603B4BCB
:10287400DB889BB21A463B4B1B6A02FB03F3374AC5
:10288400D28B92B2B3FBF2F33B613B69BB60BB6892
:102894001846FEF7EDFC02463B4B1B6813443A4ACC
:1028A40013603A4B1B881BB29BB201339BB21AB222
:1028B400364B1A80354B1B881BB21F2B0EDD324B57
:1028C4001B68002B00DA1F335B119AB22D4B9A83DD
:1028D4002E4B00221A802C4B00221A601F4B5B885F
:1028E4009BB21A461F4B9B6A02FB03F31B4AD28B13
:1028F40092B2B3FBF2F33B613B69BB60BB68184621
:10290400FEF7E0FC0246224B1B681344204A136086
:10291400204B1B881BB29BB201339BB21AB21D4BD6
:102924001A801C4B1B881BB21F2B0EDD184B1B6817
:10293400002B00DA1F335B119AB2124B1A87154B26
:1029440000221A80124B00221A60044B1B889BB28F
:102954001A46044B1B6B02FB03F31DE0CC0B002057
:10296400EC0B002004000020340A00205C0A002044
:10297400C00B0020380A00205E0A00203C0A002018
:10298400600A0020E00A0020400A0020620A0020B9
:10299400440A0020640A00208B4AD28B92B2B3FB13
:1029A400F2F33B613B69BB60BB681846FEF7B4FCBD
:1029B4000246864B1B681344844A1360844B1B886D
:1029C4001BB29BB201339BB21AB2814B1A80804B6B
:1029D4001B881BB21F2B0FDD7C4B1B68002B00DAFE
:1029E4001F335B119AB27B4BA3F85420784B00221F
:1029F4001A80764B00221A60734B1B8B9BB21A46CB
:102A0400754B9B6B02FB03F36F4AD28B92B2B3FB01
:102A1400F2F33B613B69BB60BB681846FEF7A6FC5A
:102A240002466E4B1B6813446C4A13606C4B1B8844
:102A34001BB29BB201339BB21AB2694B1A80684B2A
:102A44001B881BB21F2B0FDD644B1B68002B00DAA5
:102A54001F335B119AB25F4BA3F87020604B0022C6
:102A64001A805E4B00221A60574BDB8A9BB21A46CF
:102A7400594B1B6C02FB03F3534AD28B92B2B3FB48
:102A8400F2F33B613B69BB60BB681846FEF798FCF8
:102A94000246544B1B681344524A1360524B1B8822
:102AA4001BB29BB201339BB21AB24F4B1A804E4BEE
:102AB4001B881BB21F2B0FDD4A4B1B68002B00DA4F
:102AC4001F335B119AB2434BA3F88C20464B002270
:102AD4001A80444B00221A603B4B9B8A9BB21A46D5
:102AE4003D4B9B6C02FB03F3374AD28B92B2B3FB90
:102AF400F2F33B613B69BB60BB681846FEF78AFC96
:102B040002463A4B1B681344384A1360384B1B88FF
:102B14001BB29BB201339BB21AB2354B1A80344BB1
:102B24001B881BB21F2B0FDD304B1B68002B00DAF8
:102B34001F335B119AB2274BA3F8A8202C4B002219
:102B44001A802A4B00221A601F4B5B8A9BB21A46DA
:102B5400214B9B6C02FB03F31B4AD28B92B2B3FB57
:102B6400F2F33B613B69BB60BB681846FEF77CFC33
:102B74000246204B1B6813441E4A13601E4B1B88DD
:102B84001BB29BB201339BB21AB21B4B1A801A4B75
:102B94001B881BB21F2B0FDD164B1B68002B00DAA2
:102BA4001F335B119AB20B4BA3F8C420124B0022C3
:102BB4001A80104B00221A600023FB750023BB828D
:102BC4000023FB7528E000BFCC0B0020480A00203E
:102BD400660A0020E00A0020040000204C0A0020BD
:102BE400680A0020500A00206A0A0020540A0020C3
:102BF4006C0A0020580A00206E0A0020FA7D194948
:102C04001346DB009B1A9B000B441A88BB8A1344AF
:102C1400BB82FB7D0133FB75FB7D072BEED9124A8A
:102C2400BB8A1380104B00225A800F4B9B889BB2A7
:102C3400022B05D90C4B9B889BB21AB20A4B5A80C3
:102C4400094BDB889BB2022B07D9074BDB889BB26D
:102C54005B429BB21AB2044B5A8000BF1837BD4680
:102C640080BD00BFE00A0020C00B002080B584B006
:102C740000AF0023FB80BB1DFB600023BB803B1D1A
:102C8400BB604F4BBB60BB681A784E4B1A71BB6874
:102C94005A784C4B5A714C4BFB60FB681A78494B81
:102CA4009A71FB685A78474BDA71484BBB60BB6832
:102CB4001A78444B1A72BB685A78424B5A72444B86
:102CC400BB60BB681A783F4B9A72BB685A783D4B1D
:102CD400DA72404BBB60BB681A783A4B1A73BB6814
:102CE4005A78384B5A733C4BBB60BB681A78354BE7
:102CF4009A73BB685A78334BDA73384BBB60BB6842
:102D04001A78304B1A74BB685A782E4B5A74344B69
:102D1400BB60BB681A782B4B9A74BB685A78294BF2
:102D2400DA74304BBB60BB681A78264B1A75BB68E3
:102D34005A78244B5A752C4BBB60BB681A78214BCC
:102D44009A75BB685A781F4BDA751E4B5F221A7648
:102D5400264B1B78DAB21B4B5A761A4B1A229A77F7
:102D6400184B9B7FDBB2002219461648FEF714F875
:102D740003461A46134BDA77124BDB7FDAB2114B58
:102D84009A76104B0A22DA760E4B9B7FDBB2023323
:102D9400DBB219460B4801F0E1F80A4BFE221A7027
:102DA400084B9B7FDAB2074B5A70064BFA229A7093
:102DB400044B1422DA7000BF1037BD4680BD00BF3B
:102DC400C00B0020B00D0020C20B0020E00A002040
:102DD400FC0A0020180B0020340B0020500B0020AC
:102DE4006C0B0020880B0020A40B0020700A00202C
:102DF40080B500AF264B01221A71254B00225A716F
:102E0400234B01229A71224B0822DA71204B0022B3
:102E14001A721F4B00225A721D4B00229A721C4BCD
:102E24000022DA721A4B00221A73194B00225A73C9
:102E3400174B0E229A77164BFE221A70144B9B7F67
:102E4400DAB2134B5A70124BFA229A70104B0822C2
:102E5400DA700F4B9B7FDBB2002219460C48FDF75A
:102E64009BFF03461A460A4BDA77094BDB7FDAB23B
:102E7400074B9A73064B0A22DA73054B9B7FDBB22E
:102E84000233DBB21946024801F068F800BF80BD86
:102E9400B00D002080B582B000AF384B9B78DBB218
:102EA400012B66D101F094F80346FE2B61D1334B1C
:102EB40000229A7001F08CF80346DAB2304B9A770C
:102EC4002F4BFE221A702E4B9B7FDAB22C4B5A707A
:102ED4002B4B9B7FDBB21E2B4BD80023FB710223B1
:102EE400FB7109E001F074F80246FB79D1B2244A7F
:102EF400D154FB790133FB71FA79214B9B7FDBB20F
:102F040001339A42EEDDFB79023B1D4AD35CDAB20F
:102F14001B4BDA771A4B9B7FDBB200221946184809
:102F2400FDF73AFF03461A46154B83F82020144B4D
:102F340093F82030DAB2124BDB7FDBB29A4218D11D
:102F44000F4B9B78DBB2FA2B13D10D4BDB78DBB242
:102F5400142B01D1FFF78AFE094BDB78DBB2082B77
:102F640007D1084801F004F9074801F075F8FFF7A4
:102F74003FFF00BF0837BD4680BD00BFB809002031
:102F8400DC0D0020285800088458000880B500AFE4
:102F9400074B4FF480721A61064801F0E9F80648BD
:102FA40001F05AF8054B01221A7000BF80BD00BF22
:102FB400000801402858000890580008700A0020B2
:102FC40080B500AF074B4FF080721A61064801F0DC
:102FD400CFF8064801F040F8054B00221A7000BFF4
:102FE40080BD00BF00080140285800089858000818
:102FF400700A002080B500AF054B1B78DBB2002BB4
:1030040002D1FFF7C3FF01E0FFF7DAFF00BF80BD85
:10301400700A002080B582B000AF0120FEF764FE84
:103024004FF08050FEF748FE0320FEF747FAFEF704
:1030340069FA034600220F211846FEF7B7FA034641
:1030440019464FF0FF30FEF787FAFEF71BFF00F03A
:103054003BF900F031FC00F017FC00F06DF900F0D2
:1030640039FB00F0A3FB00F0F5FA00F081FE764B8B
:103074001B68764AA2FB03239B091846FEF7C8FA8D
:10308400734B00221A606420FDF772FE714B4FF4FB
:1030940000621A616F4B4FF480521A616E4B10221A
:1030A4001A616E4801F064F86D4800F0D5FF6D4B6D
:1030B4001B889BB21A4613469B0013441B011A46F5
:1030C400694B1A604FF47A70FDF752FEFDF79CF9D4
:1030D4005F4B1B68172B02D95D4B00221A60FDF76A
:1030E4002BFB0346FB71FB79002B0DD14FF47A7057
:1030F400FDF73EFEFDF720FB0346FB715B4801F044
:1031040037F85B4800F0A8FFFB79002B0CD14FF493
:103114007A60FDF72DFE5748FDF75AFB534801F03E
:1031240027F8534800F098FFFB79012B05D14F484D
:1031340001F01EF8504800F08FFF504B1B69504AB5
:103144001360504B1B694FF4616202FB03F34E4A58
:1031540013604C4B9B684D4A13604A4B1B6C4C4AA2
:103164001360FDF783FC414801F002F8494800F080
:1031740073FF4FF47A70FDF7FBFD474B01221A727F
:10318400FFF78EF90346BB71BB79052B01D1FFF71D
:1031940031FF324800F0ECFF404B1B680022194617
:1031A4003F4801F03DF82D4800F0E2FF3D4B1B681D
:1031B400002219463C4801F033F8284800F0D8FFB3
:1031C4003A4B9B899BB200221946394801F028F8F2
:1031D400224800F0CDFF304BDB889BB20222194617
:1031E400344801F01DF81D4800F0C2FF2F4B5B89E5
:1031F4009BB200221946304801F012F8174800F03B
:10320400B7FF254B9B889BB2022219462B4801F03D
:1032140007F8124800F0ACFF244B9B8B9BB20022B2
:103224001946274800F0FCFF0C4800F0A1FF1F4B93
:103234009B889BB200221946224800F0F1FF4FF40C
:103244007A70FDF795FD9BE7CC000020D34D62100A
:10325400F00B002000080140000C01402858000831
:10326400A0580008D80D0020740A00200458000853
:10327400AC580008C4580008D45800089C0000202A
:103284002C0A002054000020440E00204C0E002084
:10329400D40D0020BC000020C00B00200C0A00202C
:1032A400F0580008240A0020F8580008CC0B00202D
:1032B4000C5900081459000820590008285900081E
:1032C400385900084459000880B500AFFEF70AFCDD
:1032D40000BFFEF715FC0346012BFAD14FF4802101
:1032E4004FF48030FEF7AEFCFEF78CFC00BFFEF717
:1032F40097FC0346012BFAD10020FEF733FC002093
:10330400FEF744FC0020FEF755FC0220FEF70AFC01
:1033140000BFFEF71BFC0346082BFAD1054801F059
:103324008BFD044801F096FD0020FEF757FC00BF1A
:1033340080BD00BF00366E0180B58EB002AF07F1CC
:10334400280300221A605A6007F1140300221A604D
:103354005A609A60DA601A613B4600221A605A6029
:103364009A60DA601A614FF40070FEF7BDFC102019
:10337400FEF7BAFC0420FEF7B7FC0820FEF7B4FC05
:1033840043F63F733B6000237B603B4619469D48F0
:1033940001F090F94FF6FF733B6000237B603B46DE
:1033A4001946994801F086F940F202233B60002354
:1033B4007B603B461946954801F07CF900220121C7
:1033C4009348FEF743FA002201219148FEF70CFBD3
:1033D400202201218E48FEF75DFA002201218C484B
:1033E400FEF77AFA802201218948FEF797FA4FF412
:1033F400807201218648FEF7B3FA4FF480620121FE
:103404008348FEF7CFFA00218248FEF723F90246EB
:103414008149002300930B4601217D48FEF728FBD8
:10342400102201217A48FEF701FB01217848FEF7BA
:10343400EFF90023BB624FF48073FB6207F12803AA
:103444001946744801F011F84FF460237B614FF47E
:103454007003BB610023FB6102233B624FF4807362
:103464007B6207F1140319466A4801F025F84FF00E
:1034740000724FF400716748FEF70AF907224FF013
:1034840000716448FEF739F9644A40F20521614845
:10349400FEF7FEF8072261495E48FEF72EF9604AFE
:1034A40040F20A215B48FEF7F3F807225C495948C9
:1034B400FEF723F95B4A40F20F215648FEF7E8F87D
:1034C400072258495348FEF718F9574A4FF4057133
:1034D4005048FEF7DDF8072253494E48FEF70DF930
:1034E400524A40F219214B48FEF7D2F807224F49BD
:1034F4004848FEF702F94E4A4FF480714548FEF7FA
:10350400C7F807224A494348FEF7F7F8494A40F208
:1035140005114048FEF7BCF8072246493D48FEF72E
:10352400ECF8454A4FF485713A48FEF7B1F80722A2
:1035340041493848FEF7E1F80A2240F20F113548B4
:10354400FEF7A6F807220A213248FEF7D6F83B4ACE
:103554004FF48A712F48FEF79BF8072237492D480C
:10356400FEF7CBF8364A40F219112A48FEF790F8D4
:10357400072233492748FEF7C0F8324A002125487C
:10358400FEF786F807222F492248FEF7B6F82E4A9E
:1035940005212048FEF77CF807222B491D48FEF739
:1035A400ACF82A4A0A211B48FEF772F80722274979
:1035B4001848FEF7A2F8264A0F211648FEF768F8C5
:1035C400072223491348FEF798F84FF400011148E5
:1035D400FEF74CF80F48FEF7DBF86420FDF7C8FB54
:1035E4000C48FEF7E4F800BF0A48FEF7EFF803467C
:1035F400002BF9D10748FEF7FBF800BF3037BD4672
:1036040080BD00BF0010014000080140000C0140D3
:103614000000024000240140CC0B002001003002D5
:1036240002006002030090020400C0020500F002E0
:1036340006002003070050030900B0030B0030000C
:103644000C0060000D0090000E00C0000F00F000A0
:103654001100508180B586B000AF3B1D00221A6076
:103664005A609A60DA601A612020FEF725FBFDF7A4
:1036740049FF0346002200211846FDF797FF034641
:1036840019463720FDF768FF3720FDF749FF45F657
:10369400C053BB800023BB600A23FB603B1D19465B
:1036A4000B4801F0B3F90A48FEF745FB202108480E
:1036B400FEF750FB0648FEF75FFB0548FEF72CFBC0
:1036C4000348FEF768FB00BF1837BD4680BD00BF46
:1036D4000014004080B58CB000AF07F11403002241
:1036E4001A605A609A60DA601A615A619A613B46BC
:1036F40000221A605A609A60DA601A614FF48040BE
:10370400FEF7F2FA0420FEF7EFFA244B3B6009239C
:103714007B600323BB600023FB603B4619462048C3
:1037240000F0C8FF1F4B3B6004237B603B461946F7
:103734001B4800F0BFFFFDF7E5FE03460022002111
:103744001846FDF733FF034619462520FDF704FF0D
:103754002520FDF7E5FE4FF416437B610023BB6192
:103764000023FB6100233B620C237B620023BB62CA
:103774000023FB6207F1140319460B4801F0CCFA4D
:103784000948FEF726FB0848FEF714FB0648FEF737
:1037940044FB00BF3037BD4680BD00BF02000204B9
:1037A40000080140040004040038014080B58CB0D6
:1037B40000AF07F1140300221A605A609A60DA60BD
:1037C4001A615A619A613B4600221A605A609A60F3
:1037D400DA601A614FF48020FEF76EFA0820FEF7D3
:1037E40083FA254B3B6009237B600323BB600023E2
:1037F400FB603B461946214800F05CFF204B3B60D0
:1038040004237B603B4619461C4800F053FFFDF738
:1038140079FE0346002200211846FDF7C7FE034641
:1038240019462720FDF798FE2720FDF779FE4FF46F
:1038340016437B610023BB610023FB6100233B62D1
:103844000C237B620023BB620023FB6207F1140399
:1038540019460C4801F060FA0A48FEF7BAFA09481A
:10386400FEF7A8FA0748FEF7D8FA0648FEF7C6FAA4
:1038740000BF3037BD4680BD04000404000C014085
:10388400080008040048004080B500AF0120FEF79E
:10389400FBF9FDF737FE0346002200211846FDF729
:1038A40085FE034619460B20FDF756FE0B20FDF757
:1038B40037FE00BF80BD000080B586B000AF3B1D61
:1038C40000221A605A609A60DA601A612020FEF7BA
:1038D4000BFA1020FEF708FA0420FEF705FA082078
:1038E400FEF702FA2E492F48FEF7BCFA2E492F485C
:1038F400FEF7B8FA2E492F48FEF7B4FA40F2044115
:103904002D48FEF7AFFA264B7B600123BB600223F0
:10391400FB6000233B613B1D1946224800F0CAFEB0
:10392400214B7B600123BB600223FB6000233B61CE
:103934003B1D19461D4800F0BDFE204B7B6004234F
:10394400BB603B1D1946194800F0B4FE184B7B6060
:103954000123BB600223FB6000233B613B1D19462E
:10396400144800F0A7FE164B7B600823BB600123BC
:103974007B613B1D19460D4800F09CFE40F2044358
:103984007B600123BB600223FB6000233B613B1D82
:103994001946094800F08EFE00BF1837BD4680BDA9
:1039A400F938F104000C0140DAC01A040010014097
:1039B4001900190400080140001401400100010429
:1039C4000400040480B483B000AF78607B686FF0B7
:1039D40001021A6100BF0C37BD4680BC704780B439
:1039E40083B000AF78607B681B6903F00103012B8F
:1039F40001D1012300E0002318460C37BD4680BCEA
:103A0400704780B483B000AF78607B681B6803F0B4
:103A14002003202B0CBF01230023DBB218460C37F4
:103A2400BD4680BC704780B400AFFEE780B400AFF1
:103A3400FEE780B400AFFEE780B400AFFEE780B4D9
:103A440000AFFEE780B400AF00BFBD4680BC704746
:103A540080B400AF00BFBD4680BC704780B400AFE7
:103A640000BFBD4680BC704780B500AFFEF732FD95
:103A740000BF80BD80B400AF00BFBD4680BC7047AE
:103A840080B400AF1D4B1B6803F08003002B31D0C2
:103A94001B4BB3F858349BB2002B25D0184BB3F80A
:103AA40058349BB2013B9AB2154BA3F85824144BDB
:103AB400B3F856349BB25A1C91B2114AA2F8561468
:103AC4001A460F4B134493F86C30DAB20B4B5A601E
:103AD4000B4BB3F856349BB2B3F57A7F0AD1084B3B
:103AE4000022A3F8562405E0044BDB68034A23F0C4
:103AF4008003D36000BFBD4680BC704700380140DE
:103B0400F800002080B582B000AF8948FFF779FF44
:103B14000346002B00F0CB80854B5B68DBB2FB7166
:103B2400844B5B78DBB2012B49D1824BDB889BB29F
:103B34001A46804B9B889BB2023B9A4233DA7D4BF8
:103B4400DB889BB201339AB27A4BDA807A4BB3F8B2
:103B540064309BB25A1C91B2774AA2F864101A4698
:103B6400FB79D9B2744B9954734BB3F864309BB25C
:103B7400642B03D1704B0022A3F864206E4BB3F87E
:103B840068309BB201339BB26B4A1946A2F86810A5
:103B9400642B14D1684B0022A3F86820664B0122E1
:103BA400A3F86A200BE0634B0022DA80614B002209
:103BB4005A70604B00221A705E4B01229A705D4B62
:103BC4001B78DBB2012B3AD15A4B5B78DBB2002B6A
:103BD40035D1584B01225A70574BB3F864309BB21D
:103BE4005A1C91B2544AA2F864101A46FB79D9B20D
:103BF400514B9954FB79DBB29BB202339AB24D4BD1
:103C04009A804D4BB3F864309BB2642B03D14A4B7A
:103C14000022A3F86420484BB3F868309BB2013308
:103C24009BB2454A1946A2F86810642B07D1424B4F
:103C34000022A3F86820404B0122A3F86A20FB79F4
:103C4400DBB2FE2B33D13B4B1B78DBB2002B2ED1E6
:103C5400384B01221A70384BB3F864309BB25A1CAB
:103C640091B2354AA2F864101A46FB79D9B2324BA4
:103C74009954314BB3F864309BB2642B03D12E4B6F
:103C84000022A3F864202C4BB3F868309BB20133B4
:103C94009BB2294A1946A2F86810642B07D1264B17
:103CA4000022A3F86820244B0122A3F86A20204BA9
:103CB4001B6803F08003002B36D0204B1B680133B4
:103CC4001E4A13601C4BB3F858349BB2002B25D00A
:103CD400194BB3F858349BB2013B9AB2164BA3F874
:103CE4005824154BB3F856349BB25A1C91B2124A5D
:103CF400A2F856141A46104B134493F86C30DAB2F7
:103D04000B4B5A600C4BB3F856349BB2B3F57A7F25
:103D14000AD1094B0022A3F8562405E0044BDB68C2
:103D2400034A23F08003D36000BF0837BD4680BD3B
:103D340000480040B809002054050020F400002089
:103D440080B500AF0648FFF74AFE0346002B04D0B7
:103D54000348FFF737FEFFF79DF800BF80BD00BFA3
:103D64000014004080B400AF00BFBD4680BC704763
:103D740080B485B000AF0023FB600023BB60002348
:103D84007B6000233B602D4B5B6803F00C03FB60FE
:103D9400FB68082B11D0FB68082B36D8FB68002B76
:103DA40003D0FB68042B04D02FE0254B254A1A606E
:103DB4002FE0234B234A1A602BE0204B5B6803F46B
:103DC4007013BB601D4B5B6803F480337B60BB687E
:103DD4009B0C0233BB607B68002B06D1BB681A4A7C
:103DE40002FB03F3164A136013E0144BDB6A03F07F
:103DF4000F0301333B60134A3B68B2FBF3F3BA6829
:103E040002FB03F30E4A136003E00D4B0D4A1A60E4
:103E140000BF0A4B5B681B0903F00F030B4AD35C1A
:103E2400FB60074B1A68FB6822FA03F3044A136029
:103E340000BF1437BD4680BC704700BF001002406D
:103E4400CC00002000127A0000093D0058590008F7
:103E540080B483B000AF78607B681B6803F0800394
:103E6400802B0CBF01230023DBB218460C37BD4660
:103E740080BC704780B483B000AF78607B68DB6837
:103E840043F080027B68DA6000BF0C37BD4680BC1B
:103E9400704780B483B000AF78607B68DB6823F040
:103EA40080027B68DA6000BF0C37BD4680BC704777
:103EB40080B483B000AF78600B46FB70FA787B68FF
:103EC4005A6000BF0C37BD4680BC704780B582B0D5
:103ED40000AF0346FB711F48FFF7DBFF1E4BB3F82F
:103EE40054349BB25A1C91B21B4AA2F854141A4679
:103EF400194B1344FA7983F86C20174BB3F85434F4
:103F04009BB2B3F57A7F03D1134B0022A3F8542458
:103F1400114BB3F858349BB201339AB20E4BA3F849
:103F240058240D4BB3F85A349AB20B4BB3F85834A7
:103F34009BB29A4206D2084BB3F858349AB2064B55
:103F4400A3F85A240348FFF795FF00BF0837BD467E
:103F540080BD00BF004800405405002080B584B0F7
:103F640000AF78600B46FB700023FB730AE0FB7B19
:103F74007A6813441B78DBB21846FFF7A7FFFB7B74
:103F84000133FB73FA7BFB789A42F0D30A20FFF7E4
:103F94009DFF00BF1037BD4680BD000080B582B0D4
:103FA40000AF0346FB7100BF0848FFF751FF03460B
:103FB400002BF9D0FB7919460448FFF779FFFB7908
:103FC4000133FB7100BF0837BD4680BD0048004087
:103FD40080B483B000AF00BF1D4BB3F868309BB210
:103FE400002B2DD01A4BB3F866309BB25A1C91B2F9
:103FF400174AA2F866101A46154B9B5CFB71144BCA
:10400400B3F866309BB2642B03D1114B0022A3F8A2
:104014006620104BDB680F4A23F02003D3600C4B5F
:10402400B3F868309BB2013B9AB2094BA3F86820FD
:10403400084BDB68074A43F02003D360FB7901E0B7
:1040440000BF00BF18460C37BD4680BC704700BF98
:10405400540500200048004080B483B000AF78606D
:10406400414BDB68404A23F08003D36037E07B6830
:104074005A1C7A603D4AB2F8542492B2511C88B258
:104084003A49A1F8540411461B78DAB2374B0B4471
:1040940083F86C20354BB3F854349BB2B3F57A7F74
:1040A40003D1324B0022A3F85424304BB3F85834D4
:1040B4009BB201339AB22D4BA3F858242B4BB3F87F
:1040C4005A349AB2294BB3F858349BB29A4206D266
:1040D400264BB3F858349AB2244BA3F85A247B687D
:1040E4001B78DBB2002BC2D1204BB3F854349BB203
:1040F4005A1C91B21D4AA2F854141A461B4B13447D
:104104000A2283F86C20194BB3F854349BB2B3F5EC
:104114007A7F03D1154B0022A3F85424134BB3F830
:1041240058349BB201339AB2104BA3F858240F4B66
:10413400B3F85A349AB20D4BB3F858349BB29A423E
:1041440006D20A4BB3F858349AB2084BA3F85A244F
:10415400054BDB68044A43F08003D36000BF0C378F
:10416400BD4680BC704700BF00380140F800002005
:1041740080B483B000AF7860274BDB68264A23F015
:104184008003D36037E07B685A1C7A60234AB2F814
:10419400542492B2511C88B22049A1F85404114607
:1041A4001B78DAB21D4B0B4483F86C201B4BB3F81D
:1041B40054349BB2B3F57A7F03D1184B0022A3F891
:1041C4005424164BB3F858349BB201339AB2134BB0
:1041D400A3F85824114BB3F85A349AB20F4BB3F8DE
:1041E40058349BB29A4206D20C4BB3F858349AB264
:1041F4000A4BA3F85A247B681B78DBB2002BC2D18C
:10420400054BDB68044A43F08003D36000BF0C37DE
:10421400BD4680BC704700BF00380140F800002054
:1042240080B586B000AFF860B9601346FB71FB79C6
:10423400DBB2002B05D1BB681846FCF70BFE786196
:1042440007E0BB68FA79D2B211461846FCF778FE4B
:1042540078615F4BDB685E4A23F08003D36037E00C
:10426400FB685A1CFA605B4AB2F8542492B2511C9F
:1042740088B25849A1F8540411461B78DAB2554B58
:104284000B4483F86C20534BB3F854349BB2B3F50E
:104294007A7F03D14F4B0022A3F854244D4BB3F83B
:1042A40058349BB201339AB24A4BA3F85824494B71
:1042B400B3F85A349AB2474BB3F858349BB29A4283
:1042C40006D2444BB3F858349AB2424BA3F85A245A
:1042D400FB681B78DBB2002BC2D136E07B695A1C29
:1042E4007A613C4AB2F8542492B2511C88B23949DA
:1042F400A1F8540411461A78364B0B4483F86C2009
:10430400344BB3F854349BB2B3F57A7F03D1314BB9
:104314000022A3F854242F4BB3F858349BB2013332
:104324009AB22C4BA3F858242A4BB3F85A349AB2B5
:10433400284BB3F858349BB29A4206D2254BB3F8B3
:1043440058349AB2234BA3F85A247B691B78002B68
:10435400C4D1204BB3F854349BB25A1C91B21D4AB9
:10436400A2F854141A461B4B13440A2283F86C20F7
:10437400184BB3F854349BB2B3F57A7F03D1154B81
:104384000022A3F85424134BB3F858349BB20133DE
:104394009AB2104BA3F858240E4BB3F85A349AB27D
:1043A4000C4BB3F858349BB29A4206D2094BB3F87B
:1043B40058349AB2074BA3F85A24054BDB68044AD5
:1043C40043F08003D36000BF1837BD4680BD00BFF3
:1043D40000380140F80000200C480D490D4A002324
:1043E40002E0D458C4500433C4188C42F9D30A4AA6
:1043F4000A4C002301E013600432A242FBD3FFF70E
:10440400B1FC00F035FDFEF705FE7047000000200A
:10441400D000002078590008D0000020540E00205D
:10442400FEE780B483B000AF786039607B68DB6AF4
:1044340023F470023B681A437B68DA6200BF0C37CE
:10444400BD4680BC704780B483B000AF78607B68A1
:104454009B6803F00103012B0CBF01230023DBB293
:1044640018460C37BD4680BC704780B584B000AF99
:10447400786039600023FB737868FFF7E4FF034634
:10448400002B12D17B685B6823F480723B685B6805
:104494001A437B685A607B689B6823F400623B681C
:1044A4001B681A437B689A6001E00123FB73FB7B62
:1044B40018461037BD4680BD80B584B000AF786023
:1044C40039600023FB737868FFF7BDFF0346002BB8
:1044D40031D13B685B68002B0CD07B685B6823F4AC
:1044E40068423B6859683B689B680B431A437B6886
:1044F4005A6008E07B685B6823F468423B685B6849
:104504001A437B685A607B689B6823F4602323F416
:1045140081733A6811683A68D26811433A6812693B
:104524000A431A437B689A603B685B68194678685B
:10453400FFF777FF01E00123FB73FB7B184610377D
:10454400BD4680BD90B488B000AFF860B9607A60B1
:10455400FB681A46BB681B0E13441C462268BB68E2
:104564007B617B6993FAA3F33B613B69B3FA83F301
:10457400DBB29B000F2101FA03F3DB431A40BB6853
:10458400FB61FB6993FAA3F3BB61BB69B3FA83F3E1
:10459400DBB29B00796801FA03F31343236000BF85
:1045A4002037BD4690BC704790B488B000AFF86027
:1045B400B9607A60FB681A46BB681B0E13441C463C
:1045C4002268BB687B617B6993FAA3F33B613B6917
:1045D400B3FA83F3DBB29B00032101FA03F3DB4359
:1045E4001A40BB68FB61FB6993FAA3F3BB61BB6927
:1045F400B3FA83F3DBB29B00796801FA03F3134344
:10460400236000BF2037BD4690BC704790B488B08B
:1046140000AFF860B9607A60FB681A46BB681B0E8D
:1046240013441C462268BB687B617B6993FAA3F33D
:104634003B613B69B3FA83F3DBB29B00042101FACB
:1046440003F3DB431A40BB68FB61FB6993FAA3F3F2
:10465400BB61BB69B3FA83F3DBB29B00796801FAEF
:1046640003F31343236000BF2037BD4690BC70475B
:1046740080B487B000AFF860B9607A60FB68DA682C
:10468400BB681B0ADB431A40BB681B0A7B617B695E
:1046940093FAA3F33B613B69B3FA83F3DBB21946A4
:1046A4007B688B401A43FB68DA6000BF1C37BD4649
:1046B40080BC704780B588B000AF786039603B68D3
:1046C4001B681B021B0C7B617B693B613B6993FA92
:1046D400A3F3FB60FB68B3FA83F3DBB2FB6144E052
:1046E4000122FB699A407B691340002B3AD0FB6995
:1046F400072B06D840F20112FB6902FA03F3BB61EF
:1047040008E0FB69083B4FF0011202FA03F343F09F
:104714008063BB613B685B68082B06D13B681B69FF
:104724001A46B9697868FFF7A3FF3B685B681A46C5
:10473400B9697868FFF706FF3B685B68012B03D013
:104744003B685B68092B0DD13B689B681A46B969C5
:104754007868FFF729FF3B68DB681A46B96978680F
:10476400FFF754FFFB690133FB617A69FB6922FAA5
:1047740003F3002BB4D1002318462037BD4680BD77
:1047840080B400AF034B5B6803F00C031846BD46CE
:1047940080BC70470010024080B400AF034B5B68DC
:1047A40003F0F0031846BD4680BC70470010024079
:1047B40080B400AF034B5B6803F4E0631846BD4666
:1047C40080BC70470010024080B400AF034B5B68AC
:1047D40003F460531846BD4680BC70470010024085
:1047E40080B400AF034B5B6803F480331846BD46C6
:1047F40080BC70470010024080B400AF034B5B687C
:1048040003F470131846BD4680BC70470010024084
:1048140080B400AF034BDB6A03F00F031846BD46B8
:1048240080BC70470010024080B582B000AF786051
:1048340000F020F802467B681A607B681B68184603
:1048440000F03EF802467B685A607B685B68184655
:1048540000F04CF802467B689A607B685B681846F7
:1048640000F058F802467B68DA6000BF0837BD469E
:1048740080BD000080B582B000AF00237B60FFF7ED
:104884007FFF0346082B0CD0082B0ED8002B02D038
:10489400042B03D009E0094B7B6009E0074B7B60E4
:1048A40006E000F04BF8786002E0044B7B6000BF48
:1048B4007B6818460837BD4680BD00BF00127A00E9
:1048C40080B582B000AF7860FFF766FF03461B092E
:1048D40003F00F03044AD35C1A467B68D34018469E
:1048E4000837BD4680BD00BF5859000880B582B066
:1048F40000AF7860FFF75CFF03461B0A044AD35CF1
:104904001A467B68D34018460837BD4680BD00BFB1
:104914006859000880B582B000AF7860FFF754FF93
:104924000346DB0A044AD35C1A467B68D340184624
:104934000837BD4680BD00BF6859000880B582B005
:1049440000AF00237B6000233B60FFF749FF386022
:104954003B68002B04D03B68B3F5803F03D00BE0E9
:104964000D4B7B600BE0FFF753FF034601330B4A0B
:10497400B2FBF3F37B6002E0074B7B6000BFFFF701
:104984003BFF03469B0C02337A6802FB03F3184691
:104994000837BD4680BD00BF00093D0000127A0003
:1049A40080B483B000AF786039607B683A689A62FB
:1049B40000BF0C37BD4680BC704780B483B000AFE5
:1049C400786039607B683A68DA6200BF0C37BD46AC
:1049D40080BC704780B483B000AF786039607B6876
:1049E4003A681A6300BF0C37BD4680BC704780B478
:1049F40083B000AF78607B685B6943F001027B6839
:104A04005A6100BF0C37BD4680BC704780B584B086
:104A140000AF786039607B681B68FB607B683D4A47
:104A240093420FD07B68B3F1804F0BD07B683A4A36
:104A3400934207D07B68394A934203D07B68384A53
:104A4400934206D1FB6823F070023B685B68134312
:104A5400FB607B682F4A934227D07B68B3F1804F79
:104A640023D07B682C4A93421FD07B682B4A934205
:104A74001BD07B682A4A934217D07B68294A934209
:104A840013D07B68284A93420FD07B68274A93420D
:104A94000BD07B68264A934207D07B68254A934211
:104AA40003D07B68244A934206D1FB6823F4407206
:104AB4003B68DB681343FB607B68FA681A603B68F9
:104AC4009B6819467868FFF778FF3B681B8819468E
:104AD4007868FFF765FF7B680E4A93420BD07B68CA
:104AE400134A934207D07B68124A934203D07B68EF
:104AF400114A934205D13B681B6919467868FFF750
:104B040069FF7868FFF773FF002318461037BD4626
:104B140080BD00BF002C014000040040000800409C
:104B2400000C004000180040001C00400020004021
:104B340000400140004401400048014080B483B07B
:104B440000AF78607B68DB6803F40053B3F5005F63
:104B54000CBF01230023DBB218460C37BD4680BCD2
:104B6400704780B483B000AF786039607B681B699C
:104B740023F440523B681A437B681A6100BF0C3728
:104B8400BD4680BC704780B483B000AF78603960A4
:104B94007B685B6923F440723B681A437B685A6103
:104BA40000BF0C37BD4680BC7047000080B485B0A0
:104BB40000AFF860B9607A603B607B68B3F5004F82
:104BC40052D1BA6813469B0013449A001A443B68B6
:104BD4005B00B2FBF3F34F4AA2FB03235B099BB2D6
:104BE4001B0199B2BA6813469B0013449A001A44F5
:104BF4003B685B00B2FBF3F2464BA3FB02035B0989
:104C0400642000FB03F3D31ADB003233414AA2FBD6
:104C140003235B099BB25B009BB203F4F8739BB262
:104C24000B4499B2BA6813469B0013449A001A4481
:104C34003B685B00B2FBF3F2364BA3FB02035B0958
:104C4400642000FB03F3D31ADB003233314AA2FBA6
:104C540003235B099BB203F007039BB20B449BB293
:104C64001A46FB689A604FE0BA6813469B001344E7
:104C74009A001A443B689B00B2FBF3F3254AA2FB5B
:104C840003235B099BB21B0199B2BA6813469B00CC
:104C940013449A001A443B689B00B2FBF3F21D4B89
:104CA400A3FB02035B09642000FB03F3D31A1B017B
:104CB4003233184AA2FB03235B099BB203F0F003CF
:104CC4009BB20B4499B2BA6813469B0013449A00F2
:104CD4001A443B689B00B2FBF3F20E4BA3FB0203A6
:104CE4005B09642000FB03F3D31A1B013233094A26
:104CF400A2FB03235B099BB203F00F039BB20B449B
:104D04009BB21A46FB689A6000BF1437BD4680BC4C
:104D1400704700BF1F85EB5180B588B000AF786045
:104D240039600123FB770023BB617868FFF706FF36
:104D34000346002B57D17B68DB6823F4164323F02A
:104D44000C033A6851683A68D26811433A681269A8
:104D540011433A6892690A431A437B68DA603B68F4
:104D64009B6819467868FFF7FCFE3B685B69194647
:104D74007868FFF708FF07F108031846FFF754FDAA
:104D84007B681B4A934202D17B69BB611AE07B6852
:104D9400184A934202D13B69BB6113E07B68164A0F
:104DA400934202D13B69BB610CE07B68134A934296
:104DB40002D13B69BB6105E07B68114A934201D192
:104DC4003B69BB61BB69002B0DD03B681B68002BA2
:104DD40009D00023FB773B689A693B681B68B96973
:104DE4007868FFF7E3FEFB7F18462037BD4680BD99
:104DF400003801400044004000480040004C00409E
:104E04000050004080B483B000AF786039607A68A5
:104E14003B68B2FBF3F3074A013B5360054B0022A6
:104E24009A60044B05221A6000BF0C37BD4680BC53
:104E3400704700BF10E000E080B582B000AF78603A
:104E44004FF47A717868FFF7DDFF00BF0837BD467D
:104E540080BD000080B483B000AF7860034A7B68F3
:104E6400136000BF0C37BD4680BC7047CC000020E7
:104E740070B500260C4D0D4C641BA410A64209D13C
:104E840000F028F800260A4D0A4C641BA410A64220
:104E940005D170BD55F8043B98470136EEE755F847
:104EA400043B98470136F2E770590008705900082E
:104EB40070590008745900080A44914200F1FF3304
:104EC40000D1704710B511F8014B914203F8014F1E
:104ED400F9D110BDF8B500BFF8BC08BC9E467047B8
:0C4EE400F8B500BFF8BC08BC9E46704743
:104EF00044454255473A200073697A653A200000DC
:104F000076616C3A200000004661696C20746F2065
:104F10007265616420616464726573733A20000095
:104F2000454570726F6D56616C7565206973203AE6
:104F300020000000464C4153485F424153452B310D
:104F40003032342A313233203A20000043616C6918
:104F500062726174696F6E20777269746520746F14
:104F600020466C61736820737563636573732000FA
:104F700043616C6962726174696F6E2077726974E3
:104F80006520746F20466C617368204661696C2CE3
:104F90002074727920616761696E2E2E2E200000C8
:104FA000435243206973203A2000000053697A6518
:104FB000206973203A20000053657474696E67732A
:104FC00020777269746520746F20466C6173682065
:104FD0007375636365737320000000005365747418
:104FE000696E677320777269746520746F20466CF0
:104FF000617368204661696C2C2074727920616746
:1050000061696E2E2E2E200073746174656F757445
:10501000453A2000446174615768656E506F77654A
:10502000724F666620777269746520746F20466CD3
:1050300061736820737563636573732000000000FB
:10504000446174615768656E506F7765724F66662C
:1050500020777269746520746F20466C61736820D4
:105060004661696C2C2074727920616761696E2ECB
:105070002E2E2000466163746F72795772697465D1
:10508000546F466C6173685F435243004643616CE2
:105090006962726174696F6E2077726974652074D9
:1050A0006F20466C6173682073756363657373204A
:1050B000000000004643616C6962726174696F6E42
:1050C00020777269746520746F20466C6173682064
:1050D0004661696C2C2074727920616761696E2E5B
:1050E0002E2E200046435243206973203A200000B0
:1050F0004653697A65206973203A200046536574E7
:1051000074696E677320777269746520746F2046C6
:105110006C617368207375636365737320000000AE
:105120004653657474696E6773207772697465207D
:10513000746F20466C617368204661696C2C207422
:10514000727920616761696E2E2E2E2000000000AA
:1051500046446174615768656E506F7765724F663B
:105160006620777269746520746F20466C6173687D
:105170002073756363657373200000004644617497
:10518000615768656E506F7765724F6666207772FB
:1051900069746520746F20466C617368204661698C
:1051A0006C2C2074727920616761696E2E2E2E201E
:1051B0000000000043616C6962726174696F6E5730
:1051C00072697465546F466C61736820000000005A
:1051D00043616C6962726174696F6E466163746F7A
:1051E00072795772697465546F466C6173682000F8
:1051F00043616C6962726174696F6E526561644685
:10520000726F6D466C6173682000000043616C69C9
:1052100062726174696F6E5265616446726F6D4649
:105220006C617368466F725665726966792000001A
:1052300053657474696E67735772697465546F4609
:105240006C6173682000000053657474696E677345
:10525000466163746F72795772697465546F466CF6
:10526000617368200000000053657474696E677391
:105270005265616446726F6D466C61736820000010
:1052800053657474696E67735265616446726F6DBD
:10529000466C617368466F72566572696679200064
:1052A00057726974652043206D6148203A200000E0
:1052B000446174615768656E506F7765724F6666BA
:1052C0005772697465546F466C6173682000000002
:1052D000446174615768656E506F7765724F66669A
:1052E0005F466163746F72795F5772697465546F5A
:1052F000466C617368200000446174615768656E94
:10530000506F7765724F66665265616446726F6D65
:10531000466C617368200000446174615768656E73
:10532000506F7765724F66665265616446726F6D45
:10533000466C617368466F725665726966792000C3
:1053400079310000526561642066726F6D204545B9
:1053500070726F6D202D204641494C2000000000E6
:10536000526561642066726F6D20454570726F6D85
:10537000202D2053554343455353000000070E0989
:105380001C1B1215383F363124232A2D70777E7965
:105390006C6B6265484F464154535A5DE0E7EEE955
:1053A000FCFBF2F5D8DFD6D1C4C3CACD90979E9945
:1053B0008C8B8285A8AFA6A1B4B3BABDC7C0C9CE35
:1053C000DBDCD5D2FFF8F1F6E3E4EDEAB7B0B9BE25
:1053D000ABACA5A28F88818693949D9A2720292E15
:1053E0003B3C35321F18111603040D0A5750595E05
:1053F0004B4C45426F68616673747D7A898E8780F5
:1054000095929B9CB1B6BFB8ADAAA3A4F9FEF7F0E4
:10541000E5E2EBECC1C6CFC8DDDAD3D4696E6760D4
:1054200075727B7C51565F584D4A4344191E1710C4
:1054300005020B0C21262F283D3A33344E494047B4
:1054400052555C5B7671787F6A6D64633E393037A4
:1054500022252C2B0601080F1A1D1413AEA9A0A794
:10546000B2B5BCBB9691989F8A8D8483DED9D0D784
:10547000C2C5CCCBE6E1E8EFFAFDF4F34445425572
:10548000473A200069693A2000000000513A2000A4
:10549000494E464F3A2000004352432843616C690D
:1054A00062726174696F6E29203D000043616C690E
:1054B00062726174696F6E3056616C7565466F72A9
:1054C00043757272656E74203D00000043616C6923
:1054D00062726174696F6E56616C7565466F724376
:1054E000757272656E7431203D00000043616C6915
:1054F00062726174696F6E56616C7565466F724356
:10550000757272656E7432203D00000043616C69F3
:1055100062726174696F6E56616C7565466F724335
:10552000757272656E7433203D00000043616C69D2
:1055300062726174696F6E56616C7565466F725602
:105540006F6C7461676531203D00000043616C69D8
:1055500062726174696F6E56616C7565466F7256E2
:105560006F6C7461676532203D00000043616C69B7
:1055700062726174696F6E56616C7565466F7256C2
:105580006F6C7461676533203D00000043616C6996
:1055900062726174696F6E56616C7565466F7256A2
:1055A0006F6C7461676534203D000000526573695B
:1055B0007374616E6365436F6D705F4D4F53464505
:1055C00054203D004352432853657474696E6773D9
:1055D0004461746129203D004F7074696F6E3128F9
:1055E0006D656E7520706F736974696F6E29203DEB
:1055F0000000000043686172676554696D65203D75
:10560000000000004C6F77566F6C74616765203D39
:10561000000000004D6178566F6C74616765203D35
:105620000000000043686172676541646170742026
:105630003D0000005377696E675F436872675F746F
:10564000696D65203D0000005377696E675F4443D4
:105650006872675F74696D65203D00004F70746902
:105660006F6E32284F555420616674657220706FDA
:10567000776572557029203D000000004352432891
:1056800053617665446174615768656E506F7765E4
:10569000724F666629203D004261747465727943D9
:1056A0006170616369747944697363686172676585
:1056B00050726576696F757356616C7565203D0033
:1056C000426174746572794361706163697479448D
:1056D000697363686172676543757272656E742081
:1056E0003D0000004F75745374617465203D2000C7
:1056F00053797374656D436F7265436C6F636B3A76
:105700002000000000070E091C1B1215383F36311F
:1057100024232A2D70777E796C6B6265484F464151
:1057200054535A5DE0E7EEE9FCFBF2F5D8DFD6D141
:10573000C4C3CACD90979E998C8B8285A8AFA6A131
:10574000B4B3BABDC7C0C9CEDBDCD5D2FFF8F1F621
:10575000E3E4EDEAB7B0B9BEABACA5A28F88818611
:1057600093949D9A2720292E3B3C35321F18111601
:1057700003040D0A5750595E4B4C45426F686166F1
:1057800073747D7A898E878095929B9CB1B6BFB8E1
:10579000ADAAA3A4F9FEF7F0E5E2EBECC1C6CFC8D1
:1057A000DDDAD3D4696E676075727B7C51565F58C1
:1057B0004D4A4344191E171005020B0C21262F28B1
:1057C0003D3A33344E49404752555C5B7671787FA1
:1057D0006A6D64633E39303722252C2B0601080F91
:1057E0001A1D1413AEA9A0A7B2B5BCBB9691989F81
:1057F0008A8D8483DED9D0D7C2C5CCCBE6E1E8EF71
:10580000FAFDF4F3494E464F3A20000044617461BA
:1058100020736176656420004F464620416C6C2001
:1058200053797374656D000044454255473A200032
:105830004F76657243686172676520420000000020
:105840004E6F204F766572436861726765202D2028
:105850004F75747075745F4F4E0000004F46462EB2
:10586000204D696E20766F6C7461676520000000C2
:105870004F4E2E20422056203E206D696E2056202D
:105880000000000053595354454D5F494E464F00A8
:105890006F7574206F6E00006F7574206F66660000
:1058A00053797374656D204F4E000000526561643A
:1058B0002066726F6D20454570726F6D202D2046F9
:1058C00041494C00454570726D52656164464149DD
:1058D0004C000000526561642066726F6D20454582
:1058E00070726F6D202D2053554343455353000074
:1058F0007365632000000000506F7765724F666625
:1059000054696D6573656320000000005B365D209F
:105910000000000049206368617267652000000094
:105920005B355D20000000004920446973636861B5
:10593000726765200000000054204D6F7366657427
:105940003A200000542042616C616E733A200000DE
:10595000081C3044586C800000000000000000006B
:105960000102030406070809000000000102030405
:045970000902000820
:04597400E501000841
:10597800010000000000000000E003080000000033
:1059880004E003080000000008E00308000000002D
:105998000CE003080000000010E00308000000000D
:1059A80014E003080000000018E0030800000000ED
:1059B8001CE003080000000020E0030800000000CD
:1059C80024E003080000000000D8030800000000DD
:1059D80004D803080000000008D8030800000000ED
:1059E8000CD803080000000010D8030800000000CD
:1059F80014D803080000000018D8030800000000AD
:105A08001CD803080000000020D80308000000008C
:105A180000D003080000000004D0030800000000C4
:105A280008D00308000000000CD0030853424D536F
:105A3800203863204D2056312E3032000024F400E7
:04000005080043DDCF
:00000001FF
