:020000040800F2
:1000000000600020654B0008B3410008B9410008BA
:10001000BF410008C5410008CB41000800000000B6
:10002000000000000000000000000000D1410008B6
:10003000DD41000800000000E9410008F54100082A
:10004000AD4B0008AD4B0008AD4B0008AD4B0008B0
:10005000AD4B0008AD4B0008AD4B0008AD4B0008A0
:10006000AD4B0008AD4B0008AD4B00080142000845
:10007000AD4B0008AD4B0008AD4B0008AD4B000880
:10008000AD4B0008AD4B0008AD4B00080000000070
:10009000000000000000000000000000AD4B000860
:1000A000AD4B0008AD4B0008AD4B0008AD4B000850
:1000B000AD4B0008AD4B0008AD4B0008AD4B000840
:1000C000AD4B0008AD4B0008AD4B0008AD4B000830
:1000D000AD4B00080D420008AD4B000891420008EE
:1000E000AD4B0008AD4B0008AD4B0008AD4B000810
:1000F000AD4B0008AD4B0008000000000000000000
:100100000000000000000000AD4B0008AD4B0008EF
:10011000AD4B0008AD4B0008AD4B0008CD440008C6
:10012000AD4B0008AD4B0008AD4B0008AD4B0008CF
:10013000AD4B0008000000000000000000000000BF
:1001400000000000000000000000000000000000AF
:10015000000000000000000000000000000000009F
:10016000000000000000000000000000000000008F
:10017000000000000000000000000000000000007F
:10018000000000000000000000000000000000006F
:10019000000000000000000000000000000000005F
:1001A000000000000000000000000000000000004F
:1001B000000000000000000000000000000000003F
:1001C000000000000000000000000000000000002F
:1001D000000000000000000000000000000000001F
:0401E0005FF808F1CB
:1001E40010B5054C237833B9044B13B10448AFF36D
:1001F40000800123237010BD400200200000000095
:100204006056000808B5034B1BB103490348AFF31C
:10021400008008BD00000000440200206056000871
:1002240080B483B000AF786000BF194BDB6803F083
:100234000103002BF9D1164BDB6803F02003002BDC
:1002440002D0134B2022DA60114B1B69104A43F091
:10025400020313610E4A7B6853610D4B1B690C4A00
:1002640043F04003136100BF094BDB6803F0200334
:10027400002BF9D0064B2022DA60054B1B69044A97
:1002840023F00203136100BF0C37BD4680BC7047E6
:100294000020024080B400AF044B054A5A60034B6F
:1002A400044A5A6000BFBD4680BC7047002002402B
:1002B40023016745AB89EFCD80B400AF044B1B69C4
:1002C400034A43F08003136100BFBD4680BC7047FE
:1002D4000020024080B483B000AF7860396000BF72
:1002E400204BDB6803F00103002BF9D11D4BDB68C5
:1002F40003F02003002B02D01A4B2022DA60194BA2
:100304001B69184A43F0010313617B683A6892B28F
:100314001A8000BF134BDB6803F02003002BF9D0D5
:10032400104B2022DA607B6802337B603B681B0C35
:100334003B607B683A6892B21A8000BF094BDB6865
:1003440003F02003002BF9D0064B2022DA60054B82
:100354001B69044A23F00103136100BF0C37BD4637
:1003640080BC70470020024080B584B000AF72B6F4
:1003740000BFFFF78FFF0023FB601E4BBB604FF4F1
:10038400CE737B601C4B3B601C4804F0B5FA7B6861
:10039400002219461A4804F007FB184804F0ACFA86
:1003A4003B681B6800221946164804F0FDFAB86839
:1003B400FFF736FF0023FB600EE0FB689A00BB6882
:1003C400D018FB689B003A6813441B681946FFF772
:1003D40081FFFB680133FB607B689B08FA689A42E3
:1003E400EBD3FFF769FF62B600BF0123184610374D
:1003F400BD4680BD00E401086C0D0020785600085D
:10040400805600088856000880B485B000AF0023E9
:10041400FB604FF4CE73BB600F4B7B600F4B3B60B4
:100424000023FB600CE0FB689B007A681A44FB68BD
:100434009B0039680B4412681A60FB680133FB6047
:10044400BB689B08FA689A42EDD301231846143717
:10045400BD4680BC704700BF00E401086C0D00205D
:1004640080B586B000AFF860B9607A60FB681B683D
:100474007B617A69BB689A4205D37A697B689A4240
:1004840001D87B691DE0114B00221A70104804F05A
:1004940033FAFB68002219460E4804F085FA0C482A
:1004A40004F02AFA7B69002219460B4804F07CFA0E
:1004B400074804F021FA00220849094804F074FAB4
:1004C400BB6818461837BD4680BD00BF0000002039
:1004D4007856000890560008A856000800EC010859
:1004E400BC56000880B582B000AF5F4804F004FA3F
:1004F4005E4804F075F972B600BFFFF7CBFE002327
:10050400FB710023BB715A4B00224C21184600F0AA
:100514006BFC0346FB71FB79564A136000F0CAF882
:1005240000F0ACF9544B00224C21184600F05CFC5E
:100534000346BB71FA79BB799A4206D14A4804F062
:10054400DBF94E4804F04CF907E0474804F0D4F9CD
:100554004B4804F045F900F0ADF800237B7100230B
:100564003B71484B00224421184600F03DFC0346F1
:100574007B713D4804F0C0F97B790022194642485A
:1005840004F012FA384804F0B7F9002244213F4835
:1005940004F00AFA7B793E4A136000F0EDF900F0AA
:1005A400B9FA3C4B00224421184600F01DFC0346D6
:1005B4003B712D4804F0A0F93B79002219463248DA
:1005C40004F0F2F9284804F097F9002244212F4856
:1005D40004F0EAF97A793B799A4206D1224804F088
:1005E4008BF92D4804F0FCF807E01F4804F084F967
:1005F4002A4804F0F5F800F0BFF90023FB7000234B
:10060400BB70274B00221C21184600F0EDFB03466B
:10061400FB70FB78234A136000F0ECFA00F05CFBFB
:10062400214B00221C21184600F0DEFB0346BB7060
:10063400FA78BB789A4206D10B4804F05DF91B485E
:1006440004F0CEF807E0084804F056F9184804F01E
:10065400C7F800F0CFFAFFF72FFE62B600BF012300
:1006640018460837BD4680BD78560008FC57000878
:10067400A8000020A40000205800002014580008FE
:100684003C580008880100206C580008785800087D
:10069400840100204001002084580008A858000864
:1006A400100200200C020020F0010020D85800089D
:1006B4000459000880B500AF2E4B5B681846FFF75D
:1006C400AFFD2C4B5B682B4A126811461846FFF7A6
:1006D40001FE284BDB68274A926811461846FFF74B
:1006E400F9FD244B5B69234A126911461846FFF74A
:1006F400F1FD204BDB691F4A926911461846FFF74A
:10070400E9FD1C4B5B6A1B4A126A11461846FFF747
:10071400E1FD184BDB6A174A926A11461846FFF747
:10072400D9FD144B5B6B134A126B11461846FFF745
:10073400D1FD104BDB6B0F4A926B11461846FFF745
:10074400C9FD0C4B5B6C0B4A126C11461846FFF743
:10075400C1FD084BDB6C074A926C11461846FFF743
:10076400B9FD054804F0C8F8044804F039F800BF9E
:1007740080BD00BFA4000020785600085859000826
:1007840080B500AF3A4B5B684FF480720021184685
:10079400FFF766FE0346364A1360354BDB684FF4B9
:1007A4007A7201211846FFF75BFE0346304A9360D4
:1007B4002F4B5B694FF47A7201211846FFF750FE04
:1007C40003462B4A13612A4BDB694FF47A720121E9
:1007D4001846FFF745FE0346254A9361244B5B6A9E
:1007E4004FF47A7201211846FFF73AFE0346204A75
:1007F40013621F4BDB6A4FF47A7201211846FFF72C
:100804002FFE03461A4A9362194B5B6B4FF47A72BC
:1008140001211846FFF724FE0346154A1363144BBF
:10082400DB6B4FF47A7201211846FFF719FE034679
:100834000F4A93630E4B5B6C4FF47A720121184696
:10084400FFF70EFE03460A4A1364094BDB6C4FF4B0
:100854007A7201211846FFF703FE0346044A9364A3
:10086400044804F049F8044803F0BAFF00BF80BD0F
:1008740004000020785600087859000880B500AFBD
:100884003A4B5B684FF4807200211846FFF7E8FD8D
:100894000346364A1360354BDB684FF47A72012104
:1008A4001846FFF7DDFD0346304A93602F4B5B6922
:1008B4004FF47A7201211846FFF7D2FD03462B4A02
:1008C40013612A4BDB694FF47A7201211846FFF752
:1008D400C7FD0346254A9361244B5B6A4FF47A7241
:1008E40001211846FFF7BCFD0346204A13621F4B43
:1008F400DB6A4FF47A7201211846FFF7B1FD034613
:100904001A4A9362194B5B6B4FF47A7201211846B1
:10091400FFF7A6FD0346154A1363144BDB6B4FF434
:100924007A7201211846FFF79BFD03460F4A936331
:100934000E4B5B6C4FF47A7201211846FFF790FD61
:1009440003460A4A1364094BDB6C4FF47A720121A3
:100954001846FFF785FD0346044A9364044803F0F0
:10096400CBFF044803F03CFF00BF80BD54000020CF
:10097400785600089459000880B500AF2A4B5B688C
:100984001846FFF74DFC284B5B68274A126811464E
:100994001846FFF79FFC244BDB68234A92681146F4
:1009A4001846FFF797FC204B5B691F4A12691146F2
:1009B4001846FFF78FFC1C4BDB691B4A92691146F2
:1009C4001846FFF787FC184B5B6A174A126A1146F0
:1009D4001846FFF77FFC144BDB6A134A926A1146F0
:1009E4001846FFF777FC104B5B6B0F4A126B1146EE
:1009F4001846FFF76FFC0C4BDB6B0B4A926B1146EE
:100A04001846FFF767FC084B5B6C074A126C1146EB
:100A14001846FFF75FFC054803F06EFF044803F037
:100A2400DFFE00BF80BD00BF8401002078560008AF
:100A3400D059000880B500AF334B5B684FF4807227
:100A440000211846FFF70CFD03462F4A13602E4B76
:100A5400DB680A2201211846FFF702FD03462A4AF1
:100A64009360294B5B694FF47A7201211846FFF7B2
:100A7400F7FC0346244A1361234BDB694FF47A6283
:100A840001211846FFF7ECFC03461F4A93611E4BF5
:100A94005B6A4FF47A6201211846FFF7E1FC0346D2
:100AA400194A1362184BDB6A42F21072002118468D
:100AB400FFF7D6FC0346144A9362134B5B6B42F276
:100AC400107200211846FFF7CBFC03460E4A13634D
:100AD4000D4BDB6B642200211846FFF7C1FC034673
:100AE400094A9363084B5B6C032201211846FFF704
:100AF400B7FC0346044A1364044803F0FDFE0448AB
:100B040003F06EFE00BF80BDF4000020785600089C
:100B1400F059000880B500AF334B5B684FF4807226
:100B240000211846FFF79CFC03462F4A13602E4B06
:100B3400DB680A2201211846FFF792FC03462A4A81
:100B44009360294B5B694FF47A7201211846FFF7D1
:100B540087FC0346244A1361234BDB694FF47A6212
:100B640001211846FFF77CFC03461F4A93611E4B84
:100B74005B6A4FF47A6201211846FFF771FC034661
:100B8400194A1362184BDB6A42F2107200211846AC
:100B9400FFF766FC0346144A9362134B5B6B42F205
:100BA400107200211846FFF75BFC03460E4A1363DC
:100BB4000D4BDB6B642200211846FFF751FC034602
:100BC400094A9363084B5B6C032201211846FFF723
:100BD40047FC0346044A1364044803F08DFE0448AA
:100BE40003F0FEFD00BF80BD3C01002078560008E4
:100BF400085A000880B500AF164B5B681846FFF72B
:100C04000FFB144B5B68134A126811461846FFF732
:100C140061FB104BDB680F4A926811461846FFF7D8
:100C240059FB0C4B5B690B4A126911461846FFF7D6
:100C340051FB084BDB69074A926911461846FFF7D6
:100C440049FB054803F058FE044803F0C9FD00BF02
:100C540080BD00BF0C02002078560008585A0008D6
:100C640080B500AF184B5B684FF4807200211846C2
:100C7400FFF7F6FB0346144A1360134BDB68134A71
:100C840000211846FFF7ECFB03460F4A93600E4B16
:100C94005B690E4A00211846FFF7E2FB03460A4A45
:100CA4001361094BDB69012200211846FFF7D8FBC9
:100CB4000346054A9361064803F01EFE054803F007
:100CC4008FFD00BF80BD00BFCC01002000286BEE6B
:100CD40078560008805A000880B500AF184B5B684E
:100CE4004FF4807200211846FFF7BAFB0346144AFA
:100CF4001360134BDB68134A00211846FFF7B0FB5F
:100D040003460F4A93600E4B5B690E4A0021184656
:100D1400FFF7A6FB03460A4A1361094BDB6901226C
:100D240000211846FFF79CFB0346054A93610648D9
:100D340003F0E2FD054803F053FD00BF80BD00BF92
:100D4400EC01002000286BEE78560008A05A000839
:100D540080B500AF1F4B01221A701F4803F0CCFD71
:100D64001E4803F03DFD642000F06CFB72B600BF2A
:100D7400412003F0D7FCFFF773FF422003F0D2FCBD
:100D8400FFF758FE432003F0CDFCFFF7F9FC4420A5
:100D940003F0C8FC62B600BF582003F0C3FC0D4B3F
:100DA4001B78002B0AD10C4803F0A6FD0C4803F075
:100DB40017FD084B01221A70002309E0064803F0CE
:100DC4009BFD084803F00CFD024B01221A7001231D
:100DD400184680BD0000002078560008C85A000854
:100DE400CC5A0008E85A000880B5C2B000AF07F535
:100DF4008473A3F5827318600846114607F584735B
:100E0400A3F2051302461A7007F58473A3F58373DE
:100E14000A461A7007F58473A3F58073204A1846AE
:100E240011464FF480731A4604F00AFC07F58473E4
:100E3400A3F582731B6807F58472A2F58272591CAC
:100E440011601A7807F58473A3F583731B785340F4
:100E5400DBB2194607F58473A3F5837307F584722F
:100E6400A2F58072525C1A7007F58473A3F205131D
:100E740007F58472A2F205121278013A1A7007F586
:100E84008473A3F205131B78002BCFD107F5847369
:100E9400A3F583731B78184607F58477BD4680BD98
:100EA400045B0008B0B584B000AF7860A04B1B6849
:100EB400184600F039FBB8600023FB7312E0FB7B9B
:100EC400BA6813449A4A1268F97B1C789848134606
:100ED4001B01134403440B44043322461A70FB7B66
:100EE4000133FB73FB7BBA6813441B78002BE6D1F8
:100EF4008F4B1A68F97B8E4813461B011344034435
:100F04000B4404333A221A70FB7B0133FB73002336
:100F1400BB7326E0FB7B0F2B10D8BB7B7A68134492
:100F2400834A1268F97B1C78814813461B011344D9
:100F340003440B44043322461A700CE07C4B1A68B9
:100F4400F97B7B4813461B01134403440B440433CD
:100F540000221A700BE0FB7B0133FB73BB7B013374
:100F6400BB73BB7B7A6813441B78002BD2D10EE091
:100F74006F4B1A68F97B6E4813461B0113440344F4
:100F84000B44043320221A70FB7B0133FB73FB7B7D
:100F94000F2BEDD9674803F0AFFCFB7B0022194609
:100FA400654803F001FD624B1A68F97B60481346FB
:100FB4001B01134403440B44043300221A705C4B9A
:100FC4001B6801335A4A1360594B1B68172B40F2B4
:100FD4009E800023FB7393E0FB7B184600F0A4FA89
:100FE400B86000237B7311E07B7BBA681344FA7BFF
:100FF400797B1C784E4813461B01134403440B446D
:10100400043322461A707B7B01337B737B7BBA6883
:1010140013441B78002BE7D1FA7B797B44481346B1
:101024001B01134403440B4404333A221A707B7BA0
:101034000133BB7335E0FB7B092B17D9FB7B03F131
:101044000A01BC7BFA7BB87B394D0B461B010B4470
:101054002B44234404331C78354913461B011344A1
:101064000B440344043322461A7017E0FB7B03F15C
:101074000A01BB7B5C1CFA7BB87B2D4D0B461B0124
:101084000B442B44234404331C78294913461B0185
:1010940013440B440344043322461A70BB7B0133CC
:1010A400BB73FA7BB97B224813461B0113440344E8
:1010B4000B4404331B78002BBDD1BB7B013BBB73BA
:1010C4000DE0FA7BB97B1A4813461B011344034411
:1010D4000B44043320221A70BB7B0133BB73BB7BEC
:1010E4000F2BEED9FA7BB97B114813461B0113442D
:1010F40003440B44043300221A70FB7B0133FB735B
:10110400FB7B0D2B7FF668AF094B0E221A60FFF7AD
:101114002BF9084803F0F0FB054B1B680022194625
:10112400064803F041FC00BF1037BD46B0BD00BF08
:101134006C0D0020045C00080C5C0008145C0008C2
:1011440080B500AF7D4803F0D7FB7D4B1B680022C0
:1011540019467C4803F028FC784803F0CDFB784B13
:101164009B6800221946784803F01EFC734803F07C
:10117400C3FB734B1B6900221946744803F014FC2B
:101184006E4803F0B9FB6E4B9B6900221946704808
:1011940003F00AFC694803F0AFFB694B1B6A0022A9
:1011A40019466C4803F000FC644803F0A5FB644B4B
:1011B4009B6A00221946684803F0F6FB5F4803F077
:1011C4009BFB5F4B1B6B00221946644803F0ECFB4E
:1011D4005A4803F091FB5A4B9B6B00221946604816
:1011E40003F0E2FB554803F087FB554B1B6C0022D0
:1011F40019465C4803F0D8FB504803F07DFB504B84
:101204009B6C00221946584803F0CEFB322000F0B4
:1012140019F94A4803F070FB544B1B680022194625
:10122400534803F0C1FB454803F066FB4F4B9B68F2
:10123400002219464F4803F0B7FB404803F05CFB1B
:101244004A4B1B69002219464B4803F0ADFB3B484F
:1012540003F052FB454B9B6900221946474803F0B3
:10126400A3FB364803F048FB404B1B6A0022194697
:10127400434803F099FB314803F03EFB3B4B9B6B27
:10128400002219463F4803F08FFB2C4803F034FB3F
:10129400364B9B6A002219463B4803F085FB2748DE
:1012A40003F02AFB314B1B6B00221946374803F02D
:1012B4007BFB224803F020FB2C4B1B6C00221946BD
:1012C400334803F071FB322000F0BCF81B4803F0F4
:1012D40013FB304B1B68002219462F4803F064FBB4
:1012E400164803F009FB2B4B9B68002219462B4838
:1012F40003F05AFB114803F0FFFA264B1B69002246
:101304001946274803F050FB0C4803F0F5FA214B2B
:101314009B6900221946234803F046FB074803F063
:10132400EBFA214B1B6800221946204803F03CFBD2
:10133400322000F087F800BF80BD00BF185C0008B1
:1013440004000020205C0008345C0008545C0008A1
:10135400745C0008945C0008B45C0008D45C000869
:10136400F45C0008145D0008345D0008F4000020FB
:101374004C5D0008605D00087C5D00088C5D000821
:101384009C5D0008AC5D0008BC5D0008D05D0008F1
:10139400E45D0008CC010020045E0008205E000823
:1013A400485E00086C5E00083C020020785E00087D
:1013B40080B487B000AF786000237B617B68012B29
:1013C40001D101237B617B68022B01D102237B6164
:1013D4007B68032B01D112237B617B68032B0AD921
:1013E400154B1B68154AA2FB03239B0C7A68033A2E
:1013F40002FB03F37B61124B9B683B613B69FB601F
:101404000F4B9B68BB60BB681A46FB689A4205D3C6
:101414000B4B5B685A1C3B6913443B61BB68FB6024
:101424003B69BA689A1A7B699A42E9D300BF00BF44
:101434001C37BD4680BC70473C02002083DE1B4342
:1014440010E000E080B582B000AF786006E04FF4B1
:101454007A70FFF7ADFF7B68013B7B607B68002BF4
:10146400F5D100BF00BF0837BD4680BD80B5C2B00E
:1014740000AF07F58473A3F582731860084611461C
:1014840007F58473A3F2051302461A7007F58473F3
:10149400A3F583730A461A7007F58473A3F5807362
:1014A400204A184611464FF480731A4604F0C8F8CF
:1014B40007F58473A3F582731B6807F58472A2F59C
:1014C4008272591C11601A7807F58473A3F583732B
:1014D4001B785340DBB2194607F58473A3F5837375
:1014E40007F58472A2F58072525C1A7007F5847352
:1014F400A3F2051307F58472A2F205121278013AD9
:101504001A7007F58473A3F205131B78002BCFD14F
:1015140007F58473A3F583731B78184607F584775E
:10152400BD4680BD8C5E000880B489B000AF786091
:101534007B68BB61BB69002B02DA7B685B427B6022
:101544000023FB777A68314B83FB02139910D3177E
:10155400C91A0B469B000B445B00D11ACBB297F916
:101564001F10CAB20132D2B2FA773033DAB201F1C3
:1015740020033B4403F8182C7B68244A82FB0312A3
:101584009210DB17D31A7B607B68002BDADCBB6913
:10159400002B0BDA97F91F20D3B20133DBB2FB77B0
:1015A400134620333B442D2203F8182C97F91F309F
:1015B40020333B44002203F8182C0023BB7716E0A9
:1015C40097F91F305A1E97F91E3020323A4412F808
:1015D400181C0F4AD15497F91F30DBB2013BDBB220
:1015E400FB7797F91E30DBB20133DBB2BB7797F997
:1015F4001F30002BE4D197F91E30054A0021D15445
:10160400034B18462437BD4680BC70476766666640
:10161400300B002080B48FB000AF78600B46FB70B5
:101624007B683B633B6B002B02DA7B685B427B602D
:10163400002387F837307A68644B83FB02139910D0
:10164400D317C91A0B469B000B445B00D11ACBB2CB
:1016540097F93710CAB20132D2B287F83720303343
:10166400DAB201F138033B4403F81C2C7B68574A77
:1016740082FB03129210DB17D31A7B607B68002B6A
:10168400D9DC97F9373038333B44002203F81C2C5B
:1016940097F93730012B0DDC97F9373038333B4459
:1016A400302203F81C2C97F93730DBB20133DBB25C
:1016B40087F8373097F93730022B10DCFB78012B91
:1016C4000DD997F9373038333B44302203F81C2CBA
:1016D40097F93730DBB20133DBB287F837300023B8
:1016E40087F83630002387F835302CE097F9362018
:1016F400FB789A420DD197F9363038333B442E2289
:1017040003F8302C97F93630DBB20133DBB287F8BB
:10171400363097F9352097F9363038323A4412F892
:101724001C2C38333B4403F8302C97F93530DBB2AA
:101734000133DBB287F8353097F93630DBB2013349
:10174400DBB287F8363097F9352097F937309A426B
:10175400CCDB3B6B002B0CDA97F93620D3B2013388
:10176400DBB287F83630134638333B442D2203F876
:10177400302C002387F8373018E097F936305A1E9A
:1017840097F9373038323A4412F8301C104AD154A1
:1017940097F93630DBB2013BDBB287F8363097F984
:1017A4003730DBB20133DBB287F8373097F93630A4
:1017B400002BE2D197F93730054A0021D154044B6C
:1017C40018463C37BD4680BC704700BF67666666F6
:1017D400400B002080B483B000AF0346FB80B7F910
:1017E4000630002B01D100230FE0B7F90630002B9F
:1017F40002DDB7F9063008E0B7F90630002B04DA49
:10180400FB885B429BB21BB2FFE718460C37BD4610
:1018140080BC704780B483B000AF78607B68002BD5
:1018240001D100230AE07B68002B01DD7B6805E021
:101834007B68002B02DA7B685B42FFE718460C37B3
:10184400BD4680BC7047000080B485B000AF7860AE
:101854000123FB737A6813469B0013445B007B608F
:101864000C4B1B687A68D31A97F90F2003FB02F21A
:10187400084B1B681344074A1360064B1B68064A4F
:1018840082FB03129210DB17D31A18461437BD4695
:1018940080BC7047540B00206766666680B485B0D0
:1018A40000AF78600123FB737A6813469B001344EE
:1018B4005B007B600C4B1B687A68D31A97F90F2086
:1018C40003FB02F2084B1B681344074A1360064BE0
:1018D4001B68064A82FB03129210DB17D31A1846C0
:1018E4001437BD4680BC7047580B00206766666697
:1018F40080B485B000AF78600123FB737A68134627
:101904009B0013445B007B600C4B1B687A68D31A02
:1019140097F90F2003FB02F2084B1B681344074A94
:101924001360064B1B68064A82FB03129210DB17F6
:10193400D31A18461437BD4680BC70475C0B002090
:101944006766666680B485B000AF78600123FB7378
:101954007A6813469B0013445B007B600C4B1B6846
:101964007A68D31A97F90F2003FB02F2084B1B681D
:101974001344074A1360064B1B68064A82FB031292
:101984009210DB17D31A18461437BD4680BC704733
:10199400600B00206766666680B485B000AF78602F
:1019A4000123FB737A6813469B0013445B007B603E
:1019B4000C4B1B687A68D31A97F90F2003FB02F2C9
:1019C400084B1B681344074A1360064B1B68064AFE
:1019D40082FB03129210DB17D31A18461437BD4644
:1019E40080BC7047640B00206766666680B485B06F
:1019F40000AF78600123FB737A6813469B0013449D
:101A04005B007B600C4B1B687A68D31A97F90F2034
:101A140003FB02F2084B1B681344074A1360064B8E
:101A24001B68064A82FB03129210DB17D31A18466E
:101A34001437BD4680BC7047680B00206766666635
:101A440080B485B000AF78600123FB737A681346D5
:101A54009B0013445B007B600C4B1B687A68D31AB1
:101A640097F90F2003FB02F2084B1B681344074A43
:101A74001360064B1B68064A82FB03129210DB17A5
:101A8400D31A18461437BD4680BC70476C0B00202F
:101A94006766666680B485B000AF78600123FB7327
:101AA4007A6813469B0013445B007B600C4B1B68F5
:101AB4007A68D31A97F90F2003FB02F2084B1B68CC
:101AC4001344074A1360064B1B68064A82FB031241
:101AD4009210DB17D31A18461437BD4680BC7047E2
:101AE400700B00206766666680B485B000AF7860CE
:101AF4000123FB737A6813469B0013445B007B60ED
:101B04000C4B1B687A68D31A97F90F2003FB02F277
:101B1400084B1B681344074A1360064B1B68064AAC
:101B240082FB03129210DB17D31A18461437BD46F2
:101B340080BC7047740B00206766666680B485B00D
:101B440000AF78600123FB737A6813469B0013444B
:101B54005B007B600C4B1B687A68D31A97F90F20E3
:101B640003FB02F2084B1B681344074A1360064B3D
:101B74001B68064A82FB03129210DB17D31A18461D
:101B84001437BD4680BC7047780B002067666666D4
:101B940080B485B000AF78607B6803F00703FB6016
:101BA4000C4BDB68BB60BA684FF6FF031340BB60A5
:101BB400FB681A02BB68134343F0BF6343F400336A
:101BC400BB60044ABB68D36000BF1437BD4680BC09
:101BD400704700BF00ED00E080B400AF044BDB6849
:101BE4001B0A03F007031846BD4680BC704700BFBC
:101BF40000ED00E080B483B000AF0346FB7197F9B9
:101C04000730002B0BDBFB7903F01F02064997F921
:101C140007305B09012000FA02F241F8232000BFDB
:101C24000C37BD4680BC704700E100E080B483B04F
:101C340000AF03463960FB7197F90730002B0ADBCC
:101C44003B68DAB20C4997F907301201D2B20B445F
:101C540083F800230AE03B68DAB20849FB7903F011
:101C64000F03043B1201D2B20B441A7600BF0C37A7
:101C7400BD4680BC704700BF00E100E000ED00E01D
:101C840080B489B000AFF860B9607A60FB6803F093
:101C94000703FB61FB69C3F10703042B28BF04237B
:101CA400BB61FB690433062B02D9FB69033B00E0EB
:101CB40000237B614FF0FF32BB6902FA03F3DA437E
:101CC400BB681A407B699A404FF0FF317B6901FA87
:101CD40003F3D9437B680B40134318462437BD46AE
:101CE40080BC704780B582B000AF78607B68013BF0
:101CF400B3F1807F01D301230FE00A4A7B68013BE3
:101D040053600F214FF0FF30FFF790FF054B002287
:101D14009A60044B07221A60002318460837BD4610
:101D240080BD00BF10E000E080B483B000AF7860F5
:101D340039607B684C3318460C37BD4680BC70470D
:101D440080B483B000AF786039607B689B6823F40B
:101D540000023B681A437B689A6000BF0C37BD469B
:101D640080BC704780B489B000AFF860B9607A6015
:101D7400FB682C331946BB6803F440734FF440727C
:101D8400BA61BA6992FAA2F27A617A69B2FA82F213
:101D9400D2B2D3409B000B44FB61FB691A68BB6859
:101DA40003F01F031F2101FA03F3DB431A407B688E
:101DB40003F01F01BB6803F01F0301FA03F31A4386
:101DC400FB691A6000BF2437BD4680BC704780B4ED
:101DD4008DB000AFF860B9607A60FB680C331946C7
:101DE400BB6803F000734FF00072BA61BA6992FAEB
:101DF400A2F27A617A69B2FA82F2D2B2D3409B003B
:101E04000B44FB62FB6A1A68BB6803F0F8734FF07B
:101E1400F8713962396A91FAA1F1F961F969B1FA93
:101E240081F1C9B2CB40072101FA03F3DB431A4025
:101E3400BB6803F0F8734FF0F871B962B96A91FAAC
:101E4400A1F17962796AB1FA81F1C9B2CB407968BA
:101E540001FA03F31A43FB6A1A6000BF3437BD4624
:101E640080BC704780B483B000AF78607B689B68A7
:101E740043F001027B689A6000BF0C37BD4680BC0A
:101E8400704780B483B000AF78607B689B6843F090
:101E940004027B689A6000BF0C37BD4680BC704763
:101EA40080B483B000AF78607B689B6803F0040360
:101EB400042B0CBF01230023DBB218460C37BD46AC
:101EC40080BC704780B483B000AF78607B689B6847
:101ED40043F4A0027B689A6000BF0C37BD4680BC07
:101EE4007047000080B483B000AF786039603B680D
:101EF400013B0A4AD35C1A467B6813441B683A6860
:101F0400013A06498A5C11467A680A4443F001039F
:101F1400136000BF0C37BD4680BC704718610008D1
:101F240080B485B000AFF860B9607A60BB68013BEB
:101F34000C4AD35C1A46FB6813441B6823F48043A1
:101F440023F01003BA68013A06498A5C1146FA681C
:101F54000A4411467A6813430B6000BF1437BD4628
:101F640080BC70471861000880B485B000AFF86089
:101F7400B9607A60BB68013B0B4AD35C1A46FB68C4
:101F840013441B6823F02002BB68013B0649CB5C69
:101F94001946FB680B4419467B6813430B6000BF6A
:101FA4001437BD4680BC70471861000880B485B002
:101FB40000AFF860B9607A60BB68013B0B4AD35C40
:101FC4001A46FB6813441B6823F04002BB68013BBC
:101FD4000649CB5C1946FB680B4419467B681343DE
:101FE4000B6000BF1437BD4680BC70471861000801
:101FF40080B485B000AFF860B9607A60BB68013B1B
:102004000B4AD35C1A46FB6813441B6823F0800216
:10201400BB68013B0649CB5C1946FB680B44194677
:102024007B6813430B6000BF1437BD4680BC704708
:102034001861000880B485B000AFF860B9607A60B8
:10204400BB68013B0B4AD35C1A46FB6813441B680C
:1020540023F44072BB68013B0649CB5C1946FB681C
:102064000B4419467B6813430B6000BF1437BD460D
:1020740080BC70471861000880B485B000AFF86078
:10208400B9607A60BB68013B0B4AD35C1A46FB68B3
:1020940013441B6823F44062BB68013B0649CB5CD4
:1020A4001946FB680B4419467B6813430B6000BF59
:1020B4001437BD4680BC70471861000880B485B0F1
:1020C40000AFF860B9607A60BB68013B0B4AD35C2F
:1020D4001A46FB6813441B6823F44052BB68013B57
:1020E4000649CB5C1946FB680B4419467B681343CD
:1020F4000B6000BF1437BD4680BC704718610008F0
:1021040080B485B000AFF860B9607A60BB68013B09
:102114000B4AD35C1A46FB6813445B681B0C1B0414
:10212400BA68013A06498A5C1146FA680A441146BB
:102134007A6813434B6000BF1437BD4680BC7047B8
:102144001861000880B485B000AFF860B9607A60A7
:102154003B60BB69102B14D1BB68013B154AD35CAF
:102164001A46FB6813441A467B68D360BB68013B7C
:10217400104AD35C1A46FB6813441A463B689360C2
:1021840013E0BB68013B0B4AD35C1A46FB6813445B
:102194001A467B689360BB68013B064AD35C1A46C7
:1021A400FB6813441A463B68D36000BF1437BD462E
:1021B40080BC70471861000880B400AF044B1B68F2
:1021C400034A43F48033136000BFBD4680BC7047AC
:1021D4000010024080B400AF064B1B6803F40033C8
:1021E400B3F5003F0CBF01230023DBB21846BD4604
:1021F40080BC70470010024080B483B000AF7860A8
:10220400064B5B6823F0030204497B6813434B606D
:1022140000BF0C37BD4680BC704700BF00100240B1
:1022240080B400AF034B5B6803F00C031846BD4653
:1022340080BC70470010024080B483B000AF786067
:10224400064B5B6823F0F00204497B6813434B6040
:1022540000BF0C37BD4680BC704700BF0010024071
:1022640080B483B000AF7860064B5B6823F4E0620F
:1022740004497B6813434B6000BF0C37BD4680BCE8
:10228400704700BF0010024080B483B000AF786094
:10229400064B5B6823F4605204497B6813434B602C
:1022A40000BF0C37BD4680BC704700BF0010024021
:1022B40080B483B000AF7860064B5B6823F440427F
:1022C40004497B6813434B6000BF0C37BD4680BC98
:1022D400704700BF0010024080B400AF044B1B687D
:1022E400034A43F08073136000BFBD4680BC70474F
:1022F4000010024080B400AF064B1B6803F000736B
:10230400B3F1007F0CBF01230023DBB21846BD46A6
:1023140080BC70470010024080B483B000AF786086
:1023240039600D4B5B6823F47C127B6803F4403105
:102334003B680B43084913434B60074BDB6A23F0AC
:102344000F027B6803F00F0303491343CB6200BF02
:102354000C37BD4680BC70470010024080B485B085
:1023640000AF7860084B5A6907497B6813434B6197
:10237400054B5A697B681340FB60FB6800BF143748
:10238400BD4680BC704700BF0010024080B485B0D9
:1023940000AF7860084BDA6907497B681343CB6167
:1023A400054BDA697B681340FB60FB6800BF143798
:1023B400BD4680BC704700BF0010024080B485B0A9
:1023C40000AF7860084B9A6907497B6813438B61B7
:1023D400054B9A697B681340FB60FB6800BF1437A8
:1023E400BD4680BC704700BF0010024080B483B07B
:1023F40000AF78607B681B6843F001027B681A6059
:1024040000BF0C37BD4680BC704780B483B000AFBA
:1024140078607B681B6823F080027B681A6000BFC9
:102424000C37BD4680BC704780B483B000AF786081
:1024340039607B685B6823F070023B681A437B68F1
:102444005A6000BF0C37BD4680BC704780B483B06F
:1024540000AF78607B689B6823F080027B689A6099
:1024640000BF0C37BD4680BC704780B483B000AF5A
:1024740078607B68DB6843F001027B68DA6000BF48
:102484000C37BD4680BC704780B483B000AF786021
:102494007B68DB6843F400527B68DA6000BF0C376A
:1024A400BD4680BC704780B483B000AF78607B6861
:1024B4001B6923F490427B681A617B685B6923F093
:1024C4002A027B685A6100BF0C37BD4680BC704746
:1024D40080B483B000AF78607B68DB6843F020028F
:1024E4007B68DA6000BF0C37BD4680BC704780B49F
:1024F40083B000AF78607B68DB6843F080027B6860
:10250400DA6000BF0C37BD4680BC704780B483B02E
:1025140000AF786039607B689B68DA433B681B0ACC
:1025240013409BB2002B0CBF01230023DBB21846DF
:102534000C37BD4680BC704780B483B000AF786070
:1025440039603B681B0A9AB27B685A6100BF0C373A
:10255400BD4680BC7047000080B400AF074B5B6889
:10256400064A23F0E0635360044B5B68034A43F07C
:102574000073536000BFBD4680BC7047000001403B
:1025840080B500AF104B1B88002B0AD10F4B1B6882
:102594000F4A934205D90F4802F0AEF90E4802F0F3
:1025A4001FF9094B01221A800A4802F0A5F90B48C9
:1025B40002F016F96420FEF745FF094B4FF0006264
:1025C4001A6100BF80BD00BF240B0020980B0020BF
:1025D4008F0A0B008C5F0008945F0008A05F00085E
:1025E4000008014080B400AF104B80221A610F4BE9
:1025F40040221A610E4B4FF400421A610C4B4FF407
:1026040080421A610A4B4FF400521A61084B4FF48E
:1026140080521A61064B4FF480721A61044B2022D7
:102624001A6100BFBD4680BC704700BF0010014066
:10263400000C014080B582B000AF7D4B1B88B3F520
:10264400B67F02D37B4B80221A61794B1B88B3F58A
:10265400B37F03D8774B4FF400021A61744B9B8B02
:10266400B3F5B67F02D3734B40221A61704B9B8B38
:10267400B3F5B37F03D86F4B4FF480021A616C4BF0
:102684001B8FB3F5B67F03D36B4B4FF400421A6133
:10269400674B1B8FB3F5B37F03D8674B4FF00042F2
:1026A4001A61634BB3F85430B3F5B67F03D3624B6E
:1026B4004FF480421A615E4BB3F85430B3F5B37FE4
:1026C40003D85D4B4FF080421A61594BB3F8703018
:1026D400B3F5B67F03D3584B4FF400521A61544BF1
:1026E400B3F87030B3F5B37F03D8534B4FF00052B7
:1026F4001A614F4BB3F88C30B3F5B67F03D34E4B0E
:102704004FF480521A614A4BB3F88C30B3F5B37F5F
:1027140003D8494B4FF080521A61454BB3F8A830A7
:10272400B3F5B67F03D3444B4FF480721A61404B28
:10273400B3F8A830B3F5B37F03D83F4B4FF08072A2
:102744001A613B4BB3F8C430B3F5B67F02D33A4BAE
:1027540020221A61364BB3F8C430B3F5B37F03D8E3
:10276400354B4FF400121A610023FB710023BB7137
:102774000023FB7133E0FB79DBB219462C4A0B468C
:10278400DB005B1A9B0013441B88B3F5B77F0FD3A0
:1027940000F0AEFF294B01221A70294802F0ACF870
:1027A400FB79DBB2013300221946264802F0FCF81B
:1027B400FB79DBB219461E4A0B46DB005B1A9B0011
:1027C40013441B88B3F5B47F04D8BB79DBB201335F
:1027D400DBB2BB71FB79DBB20133DBB2FB71FB799A
:1027E400DBB2072BC7D9154B1B78DBB2012B1AD1EF
:1027F400BB79DAB2FB79DBB29A4214D1124B1B7863
:10280400DBB2002B0FD1114B1B78DBB2002B0AD1AA
:1028140000F054FF094B00221A70094802F06CF8CA
:102824000B4801F0DDFF00BF0837BD4680BD00BF87
:10283400500C002000100140000C0140200B00202F
:10284400B05F0008B85F0008210B0020220B0020B5
:10285400C85F000880B582B000AF0023FB7100237D
:10286400BB710023FB7187E05C4B5B881BB218468D
:10287400FEF7D0FF03465A4A82FB03125211DB17BC
:102884009B1A03F21712FB79DBB21846554903462B
:10289400DB001B1A9B000B441B889A4226DBFB7946
:1028A400DBB219464F4A0B46DB005B1A9B0013440C
:1028B40018331B78002B2AD1FB79DBB218464A4B1C
:1028C4001A6848490346DB001B1A9B000B440C336F
:1028D4001A60FB79DBB21946424A0B46DB005B1AED
:1028E4009B001344183301221A7010E0FB79DBB209
:1028F40019463C4A0B46DB005B1A9B001344183311
:1029040000221A70BB79DBB20133DBB2BB71FB79F5
:10291400DBB21946334A0B46DB005B1A9B001344B7
:1029240018331B78012B22D12F4B1A68FB79DBB2A9
:1029340018462C490346DB001B1A9B000B440C333E
:102944001B68D31A052B12D9284B01221A7000F0E8
:10295400CFFE224B01221A72254801F0CDFFFB79EC
:10296400DBB2013300221946224802F01DF8FB793C
:10297400DBB20133DBB2FB71FB79DBB2072B7FF6F1
:1029840073AF1A4B1B78DBB2012B22D1BB79DAB2BD
:10299400FB79DBB29A421CD1174B1B78DBB2002BBC
:1029A40017D1164B1B78DBB2002B12D100F086FE38
:1029B4000E4B00221A70094B02221A720C4801F0C5
:1029C4009BFFFB79DBB20133002219460C4801F06E
:1029D400EBFF00BF0837BD4680BD00BF300D0020AF
:1029E4001F85EB51500C00207C0B0020210B002094
:1029F400B05F0008E45F0008200B0020220B0020D9
:102A0400F85F000880B500AF044B1B68B3F5616F35
:102A140001D9FFF7B5FD00BF80BD00BF940B0020B6
:102A240080B400AF2B4B1B889BB2B3F50C6F04D85A
:102A3400294B4FF400221A6147E0284B1B889BB2B4
:102A44001A46274B1B889BB2D21A13469B00134489
:102A54001B01244A82FB03125211DB17D31A224AA8
:102A640013601C4B1B889BB21A4613469B001344ED
:102A74005B001A461D4B1B689A4203D9164B082269
:102A84001A6103E0144B4FF400221A61174B1B68C0
:102A9400154A12681344154A1360104B1B889BB2E5
:102AA4001A4613469B0013441B011A460F4B1B681E
:102AB4009A420AD20A4B1B889BB21A4613469B00C1
:102AC40013441B011A46094B1A6000BFBD4680BC63
:102AD400704700BF300D0020000C0140CC0F0020D7
:102AE400540F00201F85EB51C40F0020E40B00207D
:102AF40080B582B000AF1B491B48FFF707FD0346B2
:102B0400002B02D10523FB7101E00023FB71FB794B
:102B1400002B20D0154BB3F9003040F2DC52934225
:102B240007DD124B40F2B4521A80114AFB7913703C
:102B340014E00E4BB3F900309BB201339BB21AB2CE
:102B44000A4B1A80094BB3F90030142B06D1084AFA
:102B5400FB79137002E0054B00221A800837BD464A
:102B640080BD00BF0400040400100140E80B0020F5
:102B7400E20B002080B483B000AF094B1B78002B1C
:102B840002D0084B00221A60054B1B78FB71044BE2
:102B940000221A70FB7918460C37BD4680BC70477A
:102BA400E20B0020940B002080B500AFFFF7A0FFDC
:102BB400714B1B680133704A1360704B1B889BB2C6
:102BC400042B04D96D4B00221A8000F0FFF86C4BE3
:102BD4001B889BB2092B04D9694B00221A80FFF78A
:102BE4001FFF684B1B889BB2632B13D9654B0022D4
:102BF4001A80654B5B881BB21846FEF7EBFD034653
:102C0400002B04DC614B1B78DBB2012B02D1604B3F
:102C140000221A605F4B1B889BB2B3F57A7FC0F029
:102C24008C805C4B00221A80FFF7ECFE584B1B682B
:102C34000133574A1360584B1B68032B02D8FFF724
:102C4400D1FC01E0FFF7F6FCFFF704FE534B1B88B1
:102C54001BB2012B0CDC514B1B881BB21846FEF730
:102C6400B9FD03461A464E4B1B6813444C4A136085
:102C74004A4B1B881BB2022B0CDD484B1B881BB232
:102C84001846FEF7A7FD03461A46464B1B68134435
:102C9400444A1360444B1B78DBB2012B04D1434BF1
:102CA4001B680133414A1360414B1B78DBB2012B93
:102CB40004D1404B1B6801333E4A13603E4B1B78E2
:102CC400DBB2012B04D13D4B1B6801333B4A13603B
:102CD400314B1B680133304A13602B4B1B7ADBB238
:102CE400012B03D1364B04221A6103E0344B4FF419
:102CF40080221A61254B1B78DBB2012B03D1304BA8
:102D040004221A6103E02E4B4FF480221A611E4BF9
:102D14005B881BB2022B08DD2A4B4FF4B4721A8075
:102D2400294B40F245121A8007E0264B40F24F121D
:102D34001A80254B40F21D121A80104B1B889BB23F
:102D440001339AB20D4B1A800D4B1B889BB2013391
:102D54009AB20B4B1A800B4B1B889BB201339AB26D
:102D6400084B1A800B4B1B889BB201339AB2094B58
:102D74001A8000BF80BD00BF840B002060020020C9
:102D84005E0200205C020020300D0020200B002099
:102D9400940B0020620200207C0B00204C0C0020CD
:102DA400980B0020A00B0020E00B00208C0B0020CF
:102DB400E10B0020900B0020880B0020800B0020EA
:102DC40000140140CC0F0020540F002080B586B0C1
:102DD40000AF00233B610023FB600023BB600023A2
:102DE4007B60934BDB8B9BB21A464FF4F02393FB2F
:102DF400F2F39AB28F4B1A808D4B9B899BB21A4681
:102E04008D4B9B6802FB03F3894AD28B92B2B3FBCE
:102E1400F2F3FB60FB687B607B681846FEF714FDE9
:102E24000246864B1B681344844A1360844B1B88F8
:102E34001BB29BB201339BB21AB2814B1A80804BF6
:102E44001B881BB21F2B0EDD7C4B1B68002B00DA8A
:102E54001F335B119AB27B4BDA80794B00221A80C4
:102E6400764B00221A60724B5B899BB21A46724BF6
:102E74001B6902FB03F36E4AD28B92B2B3FBF2F3EB
:102E8400FB60FB687B607B681846FEF707FD024623
:102E94006D4B1B6813446C4A13606C4B1B881BB24C
:102EA4009BB201339BB21AB2684B1A80674B1B88E2
:102EB4001BB21F2B0EDD644B1B68002B00DA1F3383
:102EC4005B119AB25F4B9A80604B00221A805E4B72
:102ED40000221A60564B1B899BB21A46564B9B69BB
:102EE40002FB03F3524AD28B92B2B3FBF2F33B617F
:102EF4003B69BB60BB681846FEF7FAFC0246544BBC
:102F04001B681344524A1360524B1B881BB29BB27A
:102F140001339BB21AB24F4B1A804E4B1B881BB223
:102F24001F2B0EDD4A4B1B68002B00DA1F335B118D
:102F34009AB2494B1A80474B00221A80444B002214
:102F44001A603B4BDB889BB21A463B4B1B6A02FB65
:102F540003F3374AD28B92B2B3FBF2F33B613B6982
:102F6400BB60BB681846FEF7EDFC02463B4B1B6892
:102F740013443A4A13603A4B1B881BB29BB2013389
:102F84009BB21AB2364B1A80354B1B881BB21F2BCF
:102F94000EDD324B1B68002B00DA1F335B119AB233
:102FA4002D4B9A832E4B00221A802C4B00221A6040
:102FB4001F4B5B889BB21A461F4B9B6A02FB03F3B1
:102FC4001B4AD28B92B2B3FBF2F33B613B69BB6009
:102FD400BB681846FEF7E0FC0246224B1B6813440C
:102FE400204A1360204B1B881BB29BB201339BB257
:102FF4001AB21D4B1A801C4B1B881BB21F2B0EDDF3
:10300400184B1B68002B00DA1F335B119AB2124B6A
:103014001A87154B00221A80124B00221A60044BA7
:103024001B889BB21A46044B1B6B02FB03F31DE087
:10303400480D0020680D002004000020A40B00208F
:10304400CC0B0020300D0020A80B0020CE0B00205C
:10305400AC0B0020D00B0020500C0020B00B002043
:10306400D20B0020B40B0020D40B00208B4AD28B4F
:1030740092B2B3FBF2F33B613B69BB60BB68184699
:10308400FEF7B4FC0246864B1B681344844A136063
:10309400844B1B881BB29BB201339BB21AB2814B87
:1030A4001A80804B1B881BB21F2B0FDD7C4B1B68C7
:1030B400002B00DA1F335B119AB27B4BA3F8542028
:1030C400784B00221A80764B00221A60734B5B8B7C
:1030D4009BB21A46754B9B6B02FB03F36F4AD28B70
:1030E40092B2B3FBF2F33B613B69BB60BB68184629
:1030F400FEF7A6FC02466E4B1B6813446C4A136031
:103104006C4B1B881BB29BB201339BB21AB2694B46
:103114001A80684B1B881BB21F2B0FDD644B1B6886
:10312400002B00DA1F335B119AB25F4BA3F87020B7
:10313400604B00221A805E4B00221A60574B1B8B97
:103144009BB21A46594B1B6C02FB03F3534AD28BB6
:1031540092B2B3FBF2F33B613B69BB60BB681846B8
:10316400FEF798FC0246544B1B681344524A136002
:10317400524B1B881BB29BB201339BB21AB24F4B0A
:103184001A804E4B1B881BB21F2B0FDD4A4B1B684A
:10319400002B00DA1F335B119AB2434BA3F88C2047
:1031A400464B00221A80444B00221A603B4BDB8AB8
:1031B4009BB21A463D4B9B6C02FB03F3374AD28BFE
:1031C40092B2B3FBF2F33B613B69BB60BB68184648
:1031D400FEF78AFC02463A4B1B681344384A1360D4
:1031E400384B1B881BB29BB201339BB21AB2354BCE
:1031F4001A80344B1B881BB21F2B0FDD304B1B680E
:10320400002B00DA1F335B119AB2274BA3F8A820D6
:103214002C4B00221A802A4B00221A601F4B9B8AD7
:103224009BB21A46214B9B6C02FB03F31B4AD28BC5
:1032340092B2B3FBF2F33B613B69BB60BB681846D7
:10324400FEF77CFC0246204B1B6813441E4A1360A5
:103254001E4B1B881BB29BB201339BB21AB21B4B91
:103264001A801A4B1B881BB21F2B0FDD164B1B68D1
:10327400002B00DA1F335B119AB20B4BA3F8C42066
:10328400124B00221A80104B00221A600023FB7597
:103294000023BB820023FB7528E000BF480D0020FB
:1032A400B80B0020D60B0020500C00200400002096
:1032B400BC0B0020D80B0020C00B0020DA0B002030
:1032C400C40B0020DC0B0020C80B0020DE0B002008
:1032D400FA7D30491346DB009B1A9B000B441A8885
:1032E400BB8A1344BB82FB7D0133FB75FB7D072B3B
:1032F400EED9294ABB8A1380274B00225A80264BD9
:103304009B889BB2022B05D9234B9B889BB21AB294
:10331400214B5A80204BDB889BB2022B07D91E4BD2
:10332400DB889BB25B429BB21AB21B4B5A801B4B8D
:103334009B889AB2184B9A81184B9B8B9AB2164B66
:103344005A81164B1B8A9AB2134BDA81134BDB89D1
:103354009BB21A464FF4AF6302FB03F30F4AD28BBE
:1033640092B293FBF2F39AB20B4B5A820B4B5B8AE9
:103374009BB21A464FF4AF6302FB03F3074AD28BA6
:1033840092B293FBF2F39AB2034B9A8200BF1837BE
:10339400BD4680BD500C0020300D0020480D00209B
:1033A40080B584B000AF0023FB80BB1DFB6000230D
:1033B400BB803B1DBB604F4BBB60BB681A784E4B58
:1033C4001A71BB685A784C4B5A714C4BFB60FB68C2
:1033D4001A78494B9A71FB685A78474BDA71484B13
:1033E400BB60BB681A78444B1A72BB685A78424B6C
:1033F4005A72444BBB60BB681A783F4B9A72BB68E5
:103404005A783D4BDA72404BBB60BB681A783A4B32
:103414001A73BB685A78384B5A733C4BBB60BB6811
:103424001A78354B9A73BB685A78334BDA73384B36
:10343400BB60BB681A78304B1A74BB685A782E4B41
:103444005A74344BBB60BB681A782B4B9A74BB68B4
:103454005A78294BDA74304BBB60BB681A78264B18
:103464001A75BB685A78244B5A752C4BBB60BB68E1
:103474001A78214B9A75BB685A781F4BDA751E4B24
:103484005F221A761B4B1B7CDAB21B4B5A761A4B03
:103494001A229A77184B9B7FDBB2002219461648F2
:1034A400FDF7E4FF03461A46134BDA77124BDB7F32
:1034B400DAB2114B9A76104B0A22DA760E4B9B7FC6
:1034C400DBB20233DBB219460B4801F00BF90A4BAD
:1034D400FE221A70084B9B7FDAB2074B5A70064BD8
:1034E400FA229A70044B1422DA7000BF1037BD46DA
:1034F40080BD00BF300D00202C0F0020320D0020B5
:10350400500C00206C0C0020880C0020A40C00201F
:10351400C00C0020DC0C0020F80C0020140D00204E
:1035240080B500AF264B01221A71254B00225A7137
:10353400234B01229A71224B0822DA71204B00227C
:103544001A721F4B00225A721D4B00229A721C4B96
:103554000022DA721A4B00221A73194B00225A7392
:10356400174B0E229A77164BFE221A70144B9B7F30
:10357400DAB2134B5A70124BFA229A70104B08228B
:10358400DA700F4B9B7FDBB2002219460C48FDF723
:103594006DFF03461A460A4BDA77094BDB7FDAB232
:1035A400074B9A73064B0A22DA73054B9B7FDBB2F7
:1035B4000233DBB21946024801F094F800BF80BD23
:1035C4002C0F002080B582B000AF384B9B78DBB263
:1035D400012B66D101F0C0F80346FE2B61D1334BB9
:1035E40000229A7001F0B8F80346DAB2304B9A77A9
:1035F4002F4BFE221A702E4B9B7FDAB22C4B5A7043
:103604002B4B9B7FDBB21E2B4BD80023FB71022379
:10361400FB7109E001F0A0F80246FB79D1B2244A1B
:10362400D154FB790133FB71FA79214B9B7FDBB2D7
:1036340001339A42EEDDFB79023B1D4AD35CDAB2D8
:103644001B4BDA771A4B9B7FDBB2002219461848D2
:10365400FDF70CFF03461A46154B83F82020144B44
:1036640093F82030DAB2124BDB7FDBB29A4218D1E6
:103674000F4B9B78DBB2FA2B13D10D4BDB78DBB20B
:10368400142B01D1FFF78CFE094BDB78DBB2082B3E
:1036940007D1084801F030F9074801F0A1F8FFF715
:1036A4003FFF00BF0837BD4680BD00BF280B002088
:1036B400580F0020B05F00080C60000880B500AF10
:1036C400074B4FF480721A61064801F015F9064859
:1036D40001F086F8054B01221A7400BF80BD00BFBB
:1036E40000080140B05F000818600008300D002099
:1036F40080B500AF074B4FF080721A61064801F0A5
:10370400FBF8064801F06CF8054B02221A7400BF5E
:1037140080BD00BF00080140B05F000820600008C1
:10372400300D002080B500AF054B1B7CDBB2022BB3
:1037340002D1FFF7C3FF01E0FFF7DAFF00BF80BD4E
:10374400300D002080B582B000AF0120FEF736FEB8
:103754004FF08050FEF71AFE0320FEF719FAFEF729
:103764003BFA034600220F211846FEF789FA034666
:1037740019464FF0FF30FEF759FAFEF7EDFE00F060
:1037840067F900F05DFC00F069FB00F041FC00F01B
:1037940097F900F0CFFB00F021FB00F0ADFE894B60
:1037A4001B68894AA2FB03239B091846FEF79AFA71
:1037B400864B00221A606420FDF744FE844B4FF4CC
:1037C40000621A61824B4FF480521A61814B1022BD
:1037D4001A61814B02221A727F4B02221A747F48AB
:1037E40001F08AF87E4800F0FBFF7E4B1B889BB2F9
:1037F4001A4613469B0013441B011A467A4B1A605F
:10380400FCF770FE4FF47A70FDF71CFEFCF7FCFD2C
:103814006E4B1B68172B02D96C4B00221A60FDF704
:1038240097FA0346FB71FB79002B0DD14FF47A70A4
:10383400FDF708FEFDF78CFA0346FB716B4801F0B7
:103844005BF86B4800F0CCFFFB79002B0CD14FF4F4
:103854007A60FDF7F7FD6748FDF724FB634801F044
:103864004BF8634800F0BCFFFB79012B05D15F489E
:1038740001F042F8604800F0B3FF604B1B69604AF6
:103884001360604B1B694FF4616202FB03F35E4AF1
:1038940013605C4B9B685D4A13605A4B1B6C5C4A1B
:1038A4001360FDF74DFC514801F026F8594800F02B
:1038B40097FF4FF47A70FDF7C5FDFFF75BF90346F8
:1038C400BB71BB79052B01D1FFF72CFF434801F0F5
:1038D40013F8514B1B6800221946504801F064F854
:1038E4003E4801F009F84E4B1B68002219464D482A
:1038F40001F05AF8394800F0FFFF4B4B9B899BB20B
:1039040000221946494801F04FF8344800F0F4FF0A
:10391400314BDB889BB202221946454801F044F83A
:103924002E4800F0E9FF404B5B899BB20022194608
:10393400404801F039F8294800F0DEFF264B9B8807
:103944009BB2022219463C4801F02EF8234800F0AD
:10395400D3FF214B5B899BB200221946374801F003
:1039640023F81E4800F0C8FF1B4B9B899BB2002222
:103974001946334801F018F8184800F0BDFF164BFB
:10398400DB899BB2002219462E4801F00DF813483A
:1039940000F0B2FF104B5B8A9BB2022219462A4800
:1039A40001F002F80D4800F0A7FF0B4B9B8A9BB275
:1039B40002221946254800F0F7FF4FF47A70FDF70C
:1039C40041FD7AE73C020020D34D62106C0D0020CB
:1039D40000080140000C0140300D0020B05F0008D9
:1039E40028600008540F0020E40B00208C5F0008BE
:1039F400346000084C6000085C600008CC010020C2
:103A04009C0B0020F4000020C00F0020C80F0020F1
:103A1400500F00202C0200207C0B0020786000084E
:103A2400940B002080600008480D0020946000087A
:103A34009C600008A8600008B0600008C06000082E
:103A4400CC600008D8600008E46000080061000849
:103A540080B500AFFEF7B0FB00BFFEF7BBFB03462B
:103A6400012BFAD14FF480214FF48030FEF754FC3F
:103A7400FEF732FC00BFFEF73DFC0346012BFAD1F2
:103A84000020FEF7D9FB0020FEF7EAFB0020FEF73A
:103A9400FBFB0220FEF7B0FB00BFFEF7C1FB0346B1
:103AA400082BFAD1054801F08BFD044801F096FD7E
:103AB4000020FEF7FDFB00BF80BD00BF00366E0195
:103AC40080B58EB002AF07F1280300221A605A6055
:103AD40007F1140300221A605A609A60DA601A61CE
:103AE4003B4600221A605A609A60DA601A614FF409
:103AF4000070FEF763FC1020FEF760FC0420FEF764
:103B04005DFC0820FEF75AFC42F62F733B6000234D
:103B14007B603B4619469D4801F090F94FF6FF73D0
:103B24003B6000237B603B461946994801F086F9C7
:103B340040F203333B6000237B603B4619469548C3
:103B440001F07CF9002201219348FEF7E9F90022F3
:103B540001219148FEF7B2FA202201218E48FEF796
:103B640003FA002201218C48FEF720FA8022012169
:103B74008948FEF73DFA4FF4807201218648FEF72A
:103B840059FA4FF4806201218348FEF775FA002147
:103B94008248FEF7C9F802468149002300930B4688
:103BA40001217D48FEF7CEFA102201217A48FEF762
:103BB400A7FA01217848FEF795F90023BB624FF478
:103BC4008073FB6207F128031946744801F011F869
:103BD4004FF460237B614FF47003BB610023FB61EE
:103BE40002233B624FF480737B6207F1140319468E
:103BF4006A4801F025F84FF000724FF400716748ED
:103C0400FEF7B0F807224FF000716448FEF7DFF8C2
:103C1400644A40F205216148FEF7A4F8072261498D
:103C24005E48FEF7D4F8604A40F20A215B48FEF78A
:103C340099F807225C495948FEF7C9F85B4A40F2F3
:103C44000F215648FEF78EF8072258495348FEF7CD
:103C5400BEF8574A4FF405715048FEF783F807221F
:103C640053494E48FEF7B3F8524A40F219214B48E3
:103C7400FEF778F807224F494848FEF7A8F84E4A5D
:103C84004FF480714548FEF76DF807224A494348CE
:103C9400FEF79DF8494A40F205114048FEF762F8E4
:103CA400072246493D48FEF792F8454A4FF485718C
:103CB4003A48FEF757F8072241493848FEF787F893
:103CC400404A40F20F113548FEF74CF807223D49AF
:103CD4003248FEF77CF80A224FF48A712F48FEF727
:103CE40041F807220A212D48FEF771F8364A40F2BE
:103CF40019112A48FEF736F8072233492748FEF7F8
:103D040066F8324A00212548FEF72CF807222F498D
:103D14002248FEF75CF82E4A05212048FEF722F8D7
:103D240007222B491D48FEF752F82A4A0A211B484C
:103D3400FEF718F8072227491848FEF748F8264ADC
:103D44000F211648FEF70EF8072223491348FEF701
:103D54003EF84FF400011148FDF7F2FF0F48FEF75B
:103D640081F86420FDF76EFB0C48FEF78AF800BF6B
:103D74000A48FEF795F80346002BF9D10748FEF7E9
:103D8400A1F800BF3037BD4680BD00BF0010014020
:103D940000080140000C01400000024000240140E2
:103DA400480D00200100300202006002030090026E
:103DB4000400C0020500F0020600200307005003BF
:103DC400080080030900B0030B0030000C00600001
:103DD4000D0090000F00F0001100508180B586B0F6
:103DE40000AF3B1D00221A605A609A60DA601A61C3
:103DF4002020FEF7CBFAFDF7EFFE03460022002158
:103E04001846FDF73DFF034619463720FDF70EFF20
:103E14003720FDF7EFFE45F6C053BB800023BB609F
:103E24000A23FB603B1D19460B4801F0B3F90A480D
:103E3400FEF7EBFA20210848FEF7F6FA0648FEF7EB
:103E440005FB0548FEF7D2FA0348FEF70EFB00BF58
:103E54001837BD4680BD00BF0014004080B58CB04B
:103E640000AF07F1140300221A605A609A60DA6006
:103E74001A615A619A613B4600221A605A609A603C
:103E8400DA601A614FF48040FEF798FA0420FEF7D6
:103E940095FA244B3B6009237B600323BB6000231A
:103EA400FB603B461946204800F0C8FF1F4B3B60AF
:103EB40004237B603B4619461B4800F0BFFFFDF717
:103EC4008BFE0346002200211846FDF7D9FE034667
:103ED40019462520FDF7AAFE2520FDF78BFE4FF499
:103EE40016437B610023BB610023FB6100233B621B
:103EF4000C237B620023BB620023FB6207F11403E3
:103F040019460B4801F0CCFA0948FEF7CCFA0848E8
:103F1400FEF7BAFA0648FEF7EAFA00BF3037BD46A4
:103F240080BD00BF02000204000801400400040434
:103F34000038014080B58CB000AF07F114030022B3
:103F44001A605A609A60DA601A615A619A613B4653
:103F540000221A605A609A60DA601A614FF4802075
:103F6400FEF714FA0820FEF729FA254B3B600923D3
:103F74007B600323BB600023FB603B46194621485A
:103F840000F05CFF204B3B6004237B603B461946FA
:103F94001C4800F053FFFDF71FFE034600220021DA
:103FA4001846FDF76DFE034619462720FDF73EFE31
:103FB4002720FDF71FFE4FF416437B610023BB61EE
:103FC4000023FB6100233B620C237B620023BB6262
:103FD4000023FB6207F1140319460C4801F060FA50
:103FE4000A48FEF760FA0948FEF74EFA0748FEF75A
:103FF4007EFA0648FEF76CFA00BF3037BD4680BD36
:1040040004000404000C01400800080400480040B7
:1040140080B500AF0120FEF7A1F9FDF7DDFD0346F1
:10402400002200211846FDF72BFE034619460B20FB
:10403400FDF7FCFD0B20FDF7DDFD00BF80BD00009A
:1040440080B586B000AF3B1D00221A605A609A60AA
:10405400DA601A612020FEF7B1F91020FEF7AEF9FC
:104064000420FEF7ABF90820FEF7A8F92E492F48E3
:10407400FEF762FA2E492F48FEF75EFA2E492F48C2
:10408400FEF75AFA40F204412D48FEF755FA264B42
:104094007B600123BB600223FB6000233B613B1D6B
:1040A4001946224800F0CAFE214B7B600123BB6005
:1040B4000223FB6000233B613B1D19461D4800F0B1
:1040C400BDFE204B7B600423BB603B1D1946194891
:1040D40000F0B4FE184B7B600123BB600223FB603D
:1040E40000233B613B1D1946144800F0A7FE164B04
:1040F4007B600823BB6001237B613B1D19460D488F
:1041040000F09CFE40F204437B600123BB60022369
:10411400FB6000233B613B1D1946094800F08EFEFD
:1041240000BF1837BD4680BDF938F104000C0140CA
:10413400DAC01A04001001401900190400080140F3
:1041440000140140010001040400040480B483B09D
:1041540000AF78607B686FF001021A6100BF0C3712
:10416400BD4680BC704780B483B000AF78607B6884
:104174001B6903F00103012B01D1012300E000239B
:1041840018460C37BD4680BC704780B483B000AF7E
:1041940078607B681B6803F02003202B0CBF01238D
:1041A4000023DBB218460C37BD4680BC704780B490
:1041B40000AFFEE780B400AFFEE780B400AFFEE7D7
:1041C40080B400AFFEE780B400AFFEE780B400AF78
:1041D40000BFBD4680BC704780B400AF00BFBD4681
:1041E40080BC704780B400AF00BFBD4680BC704740
:1041F40080B500AFFEF7D8FC00BF80BD80B400AF2F
:1042040000BFBD4680BC704780B400AF1D4B1B6827
:1042140003F08003002B31D01B4BB3F858349BB20E
:10422400002B25D0184BB3F858349BB2013B9AB2FB
:10423400154BA3F85824144BB3F856349BB25A1CAC
:1042440091B2114AA2F856141A460F4B134493F82C
:104254006C30DAB20B4B5A600B4BB3F856349BB24A
:10426400B3F57A7F0AD1084B0022A3F8562405E05F
:10427400044BDB68034A23F08003D36000BFBD46D0
:1042840080BC7047003801406802002080B582B0CD
:1042940000AF8948FFF779FF0346002B00F0CB807D
:1042A400854B5B68DBB2FB71844B5B78DBB2012B23
:1042B40049D1824BDB889BB21A46804B9B889BB2C8
:1042C400023B9A4233DA7D4BDB889BB201339AB2CC
:1042D4007A4BDA807A4BB3F864309BB25A1C91B2B1
:1042E400774AA2F864101A46FB79D9B2744B9954F0
:1042F400734BB3F864309BB2642B03D1704B002230
:10430400A3F864206E4BB3F868309BB201339BB2C0
:104314006B4A1946A2F86810642B14D1684B00222A
:10432400A3F86820664B0122A3F86A200BE0634BD4
:104334000022DA80614B00225A70604B00221A700E
:104344005E4B01229A705D4B1B78DBB2012B3AD194
:104354005A4B5B78DBB2002B35D1584B01225A7093
:10436400574BB3F864309BB25A1C91B2544AA2F82A
:1043740064101A46FB79D9B2514B9954FB79DBB2DC
:104384009BB202339AB24D4B9A804D4BB3F86430D2
:104394009BB2642B03D14A4B0022A3F86420484B00
:1043A400B3F868309BB201339BB2454A1946A2F870
:1043B4006810642B07D1424B0022A3F86820404BBD
:1043C4000122A3F86A20FB79DBB2FE2B33D13B4BED
:1043D4001B78DBB2002B2ED1384B01221A70384BDC
:1043E400B3F864309BB25A1C91B2354AA2F86410F7
:1043F4001A46FB79D9B2324B9954314BB3F8643035
:104404009BB2642B03D12E4B0022A3F864202C4BC7
:10441400B3F868309BB201339BB2294A1946A2F81B
:104424006810642B07D1264B0022A3F86820244B84
:104434000122A3F86A20204B1B6803F08003002BA1
:1044440036D0204B1B6801331E4A13601C4BB3F853
:1044540058349BB2002B25D0194BB3F858349BB277
:10446400013B9AB2164BA3F85824154BB3F85634B3
:104474009BB25A1C91B2124AA2F856141A46104B17
:10448400134493F86C30DAB20B4B5A600C4BB3F80C
:1044940056349BB2B3F57A7F0AD1094B0022A3F8B4
:1044A400562405E0044BDB68034A23F08003D36001
:1044B40000BF0837BD4680BD00480040280B0020DF
:1044C400C40600206402002080B500AF0648FFF750
:1044D4004AFE0346002B04D00348FFF737FEFFF7DC
:1044E40071F800BF80BD00BF0014004080B400AF6D
:1044F40000BFBD4680BC704780B485B000AF0023C8
:10450400FB600023BB6000237B6000233B602D4BDA
:104514005B6803F00C03FB60FB68082B11D0FB689D
:10452400082B36D8FB68002B03D0FB68042B04D07F
:104534002FE0254B254A1A602FE0234B234A1A60AB
:104544002BE0204B5B6803F47013BB601D4B5B686E
:1045540003F480337B60BB689B0C0233BB607B68D5
:10456400002B06D1BB681A4A02FB03F3164A1360F8
:1045740013E0144BDB6A03F00F0301333B60134A6F
:104584003B68B2FBF3F3BA6802FB03F30E4A136011
:1045940003E00D4B0D4A1A6000BF0A4B5B681B0910
:1045A40003F00F030B4AD35CFB60074B1A68FB68EC
:1045B40022FA03F3044A136000BF1437BD4680BCDB
:1045C400704700BF001002403C02002000127A0035
:1045D40000093D002061000880B483B000AF78601A
:1045E4007B681B6803F08003802B0CBF012300232E
:1045F400DBB218460C37BD4680BC704780B483B02C
:1046040000AF78607B68DB6843F080027B68DA6027
:1046140000BF0C37BD4680BC704780B483B000AF88
:1046240078607B68DB6823F080027B68DA6000BF17
:104634000C37BD4680BC704780B483B000AF78604F
:104644000B46FB70FA787B685A6000BF0C37BD4696
:1046540080BC704780B582B000AF0346FB711F4831
:10466400FFF7DBFF1E4BB3F854349BB25A1C91B2D4
:104674001B4AA2F854141A46194B1344FA7983F8C6
:104684006C20174BB3F854349BB2B3F57A7F03D143
:10469400134B0022A3F85424114BB3F858349BB2A3
:1046A40001339AB20E4BA3F858240D4BB3F85A3485
:1046B4009AB20B4BB3F858349BB29A4206D2084BC9
:1046C400B3F858349AB2064BA3F85A240348FFF7B8
:1046D40095FF00BF0837BD4680BD00BF00480040BD
:1046E400C406002080B584B000AF78600B46FB7030
:1046F4000023FB730AE0FB7B7A6813441B78DBB26C
:104704001846FFF7A7FFFB7B0133FB73FA7BFB78AB
:104714009A42F0D30A20FFF79DFF00BF1037BD4631
:1047240080BD000080B582B000AF0346FB7100BFBE
:104734000848FFF751FF0346002BF9D0FB791946CF
:104744000448FFF779FFFB790133FB7100BF083799
:10475400BD4680BD0048004080B483B000AF00BFB8
:104764001D4BB3F868309BB2002B2DD01A4BB3F815
:1047740066309BB25A1C91B2174AA2F866101A46C8
:10478400154B9B5CFB71144BB3F866309BB2642BE6
:1047940003D1114B0022A3F86620104BDB680F4AAB
:1047A40023F02003D3600C4BB3F868309BB2013B79
:1047B4009AB2094BA3F86820084BDB68074A43F018
:1047C4002003D360FB7901E000BF00BF18460C371B
:1047D400BD4680BC704700BFC406002000480040AE
:1047E40080B483B000AF7860414BDB68404A23F06B
:1047F4008003D36037E07B685A1C7A603D4AB2F884
:10480400542492B2511C88B23A49A1F85404114676
:104814001B78DAB2374B0B4483F86C20354BB3F872
:1048240054349BB2B3F57A7F03D1324B0022A3F800
:104834005424304BB3F858349BB201339AB22D4B05
:10484400A3F858242B4BB3F85A349AB2294BB3F833
:1048540058349BB29A4206D2264BB3F858349AB2D3
:10486400244BA3F85A247B681B78DBB2002BC2D1FB
:10487400204BB3F854349BB25A1C91B21D4AA2F88F
:1048840054141A461B4B13440A2283F86C20194B08
:10489400B3F854349BB2B3F57A7F03D1154B00229D
:1048A400A3F85424134BB3F858349BB201339AB28F
:1048B400104BA3F858240F4BB3F85A349AB20D4B4B
:1048C400B3F858349BB29A4206D20A4BB3F8583420
:1048D4009AB2084BA3F85A24054BDB68044A43F008
:1048E4008003D36000BF0C37BD4680BC704700BF57
:1048F400003801406802002080B483B000AF7860C3
:10490400274BDB68264A23F08003D36037E07B68BB
:104914005A1C7A60234AB2F8542492B2511C88B2C9
:104924002049A1F8540411461B78DAB21D4B0B44FC
:1049340083F86C201B4BB3F854349BB2B3F57A7FE5
:1049440003D1184B0022A3F85424164BB3F858345F
:104954009BB201339AB2134BA3F85824114BB3F80A
:104964005A349AB20F4BB3F858349BB29A4206D2D7
:104974000C4BB3F858349AB20A4BA3F85A247B6808
:104984001B78DBB2002BC2D1054BDB68044A43F031
:104994008003D36000BF0C37BD4680BC704700BFA6
:1049A400003801406802002080B586B000AFF8608E
:1049B400B9601346FB71FB79DBB2002B05D1BB68F0
:1049C4001846FCF7B1FD786107E0BB68FA79D2B20A
:1049D40011461846FCF71EFE78615F4BDB685E4AA1
:1049E40023F08003D36037E0FB685A1CFA605B4A0B
:1049F400B2F8542492B2511C88B25849A1F8540414
:104A040011461B78DAB2554B0B4483F86C20534B98
:104A1400B3F854349BB2B3F57A7F03D14F4B0022E1
:104A2400A3F854244D4BB3F858349BB201339AB2D3
:104A34004A4BA3F85824494BB3F85A349AB2474B1B
:104A4400B3F858349BB29A4206D2444BB3F8583464
:104A54009AB2424BA3F85A24FB681B78DBB2002BB2
:104A6400C2D136E07B695A1C7A613C4AB2F85424BC
:104A740092B2511C88B23949A1F8540411461A78EB
:104A8400364B0B4483F86C20344BB3F854349BB24C
:104A9400B3F57A7F03D1314B0022A3F854242F4B72
:104AA400B3F858349BB201339AB22C4BA3F8582470
:104AB4002A4BB3F85A349AB2284BB3F858349BB201
:104AC4009A4206D2254BB3F858349AB2234BA3F832
:104AD4005A247B691B78002BC4D1204BB3F854347F
:104AE4009BB25A1C91B21D4AA2F854141A461B4B8D
:104AF40013440A2283F86C20184BB3F854349BB245
:104B0400B3F57A7F03D1154B0022A3F85424134B39
:104B1400B3F858349BB201339AB2104BA3F858241B
:104B24000E4BB3F85A349AB20C4BB3F858349BB2C8
:104B34009A4206D2094BB3F858349AB2074BA3F8F9
:104B44005A24054BDB68044A43F08003D36000BF5A
:104B54001837BD4680BD00BF003801406802002000
:104B64000C480D490D4A002302E0D458C4500433C4
:104B7400C4188C42F9D30A4A0A4C002301E013609A
:104B84000432A242FBD3FFF7B1FC00F035FDFEF77F
:104B9400D9FD704700000020400200204061000859
:104BA40040020020D00F0020FEE780B483B000AFA5
:104BB400786039607B68DB6A23F470023B681A43CF
:104BC4007B68DA6200BF0C37BD4680BC704780B496
:104BD40083B000AF78607B689B6803F00103012B0E
:104BE4000CBF01230023DBB218460C37BD4680BC42
:104BF400704780B584B000AF786039600023FB73E0
:104C04007868FFF7E4FF0346002B12D17B685B68EA
:104C140023F480723B685B681A437B685A607B6844
:104C24009B6823F400623B681B681A437B689A60A4
:104C340001E00123FB73FB7B18461037BD4680BDA2
:104C440080B584B000AF786039600023FB73786866
:104C5400FFF7BDFF0346002B31D13B685B68002B97
:104C64000CD07B685B6823F468423B6859683B68F6
:104C74009B680B431A437B685A6008E07B685B6857
:104C840023F468423B685B681A437B685A607B681C
:104C94009B6823F4602323F481733A6811683A68AB
:104CA400D26811433A6812690A431A437B689A60CE
:104CB4003B685B6819467868FFF777FF01E00123DA
:104CC400FB73FB7B18461037BD4680BD90B488B09B
:104CD40000AFF860B9607A60FB681A46BB681B0EC7
:104CE40013441C462268BB687B617B6993FAA3F377
:104CF4003B613B69B3FA83F3DBB29B000F2101FAFA
:104D040003F3DB431A40BB68FB61FB6993FAA3F32B
:104D1400BB61BB69B3FA83F3DBB29B00796801FA28
:104D240003F31343236000BF2037BD4690BC704794
:104D340090B488B000AFF860B9607A60FB681A4636
:104D4400BB681B0E13441C462268BB687B617B69ED
:104D540093FAA3F33B613B69B3FA83F3DBB29B00A1
:104D6400032101FA03F3DB431A40BB68FB61FB69CF
:104D740093FAA3F3BB61BB69B3FA83F3DBB29B0081
:104D8400796801FA03F31343236000BF2037BD465B
:104D940090BC704790B488B000AFF860B9607A6096
:104DA400FB681A46BB681B0E13441C462268BB688A
:104DB4007B617B6993FAA3F33B613B69B3FA83F3A9
:104DC400DBB29B00042101FA03F3DB431A40BB6806
:104DD400FB61FB6993FAA3F3BB61BB69B3FA83F389
:104DE400DBB29B00796801FA03F31343236000BF2D
:104DF4002037BD4690BC704780B487B000AFF860E0
:104E0400B9607A60FB68DA68BB681B0ADB431A4046
:104E1400BB681B0A7B617B6993FAA3F33B613B6923
:104E2400B3FA83F3DBB219467B688B401A43FB6801
:104E3400DA6000BF1C37BD4680BC704780B588B0BF
:104E440000AF786039603B681B681B021B0C7B61F8
:104E54007B693B613B6993FAA3F3FB60FB68B3FA9C
:104E640083F3DBB2FB6144E00122FB699A407B6976
:104E74001340002B3AD0FB69072B06D840F20112ED
:104E8400FB6902FA03F3BB6108E0FB69083B4FF0DE
:104E9400011202FA03F343F08063BB613B685B6871
:104EA400082B06D13B681B691A46B9697868FFF775
:104EB400A3FF3B685B681A46B9697868FFF706FF89
:104EC4003B685B68012B03D03B685B68092B0DD101
:104ED4003B689B681A46B9697868FFF729FF3B6805
:104EE400DB681A46B9697868FFF754FFFB69013338
:104EF400FB617A69FB6922FA03F3002BB4D1002326
:104F040018462037BD4680BD80B400AF034B5B68B4
:104F140003F00C031846BD4680BC704700100240E5
:104F240080B400AF034B5B6803F0F0031846BD4642
:104F340080BC70470010024080B400AF034B5B6834
:104F440003F4E0631846BD4680BC7047001002407D
:104F540080B400AF034B5B6803F460531846BD464E
:104F640080BC70470010024080B400AF034B5B6804
:104F740003F480331846BD4680BC704700100240DD
:104F840080B400AF034B5B6803F470131846BD464E
:104F940080BC70470010024080B400AF034BDB6A52
:104FA40003F00F031846BD4680BC70470010024052
:104FB40080B582B000AF786000F020F802467B68CC
:104FC4001A607B681B68184600F03EF802467B684E
:104FD4005A607B685B68184600F04CF802467B68B0
:104FE4009A607B685B68184600F058F802467B6854
:104FF400DA6000BF0837BD4680BD000080B582B0CE
:1050040000AF00237B60FFF77FFF0346082B0CD023
:10501400082B0ED8002B02D0042B03D009E0094B37
:105024007B6009E0074B7B6006E000F04BF878609A
:1050340002E0044B7B6000BF7B6818460837BD461E
:1050440080BD00BF00127A0080B582B000AF7860E6
:10505400FFF766FF03461B0903F00F03044AD35C02
:105064001A467B68D34018460837BD4680BD00BF4A
:105074002061000880B582B000AF7860FFF75CFF64
:1050840003461B0A044AD35C1A467B68D34018467D
:105094000837BD4680BD00BF3061000880B582B0CE
:1050A40000AF7860FFF754FF0346DB0A044AD35C81
:1050B4001A467B68D34018460837BD4680BD00BFFA
:1050C4003061000880B582B000AF00237B6000230C
:1050D4003B60FFF749FF38603B68002B04D03B6816
:1050E400B3F5803F03D00BE00D4B7B600BE0FFF783
:1050F40053FF034601330B4AB2FBF3F37B6002E038
:10510400074B7B6000BFFFF73BFF03469B0C02335A
:105114007A6802FB03F318460837BD4680BD00BF1A
:1051240000093D0000127A0080B483B000AF7860BB
:1051340039607B683A689A6200BF0C37BD4680BC10
:10514400704780B483B000AF786039607B683A6898
:10515400DA6200BF0C37BD4680BC704780B483B0B0
:1051640000AF786039607B683A681A6300BF0C3717
:10517400BD4680BC704780B483B000AF78607B6864
:105184005B6943F001027B685A6100BF0C37BD467E
:1051940080BC704780B584B000AF786039607B68AC
:1051A4001B68FB607B683D4A93420FD07B68B3F178
:1051B400804F0BD07B683A4A934207D07B68394AC8
:1051C400934203D07B68384A934206D1FB6823F0AC
:1051D40070023B685B681343FB607B682F4A934211
:1051E40027D07B68B3F1804F23D07B682C4A93424D
:1051F4001FD07B682B4A93421BD07B682A4A934278
:1052040017D07B68294A934213D07B68284A93427B
:105214000FD07B68274A93420BD07B68264A93427F
:1052240007D07B68254A934203D07B68244A934283
:1052340006D1FB6823F440723B68DB681343FB60D0
:105244007B68FA681A603B689B6819467868FFF7C0
:1052540078FF3B681B8819467868FFF765FF7B6811
:105264000E4A93420BD07B68134A934207D07B6863
:10527400124A934203D07B68114A934205D13B689A
:105284001B6919467868FFF769FF7868FFF773FFB1
:10529400002318461037BD4680BD00BF002C0140D6
:1052A4000004004000080040000C004000180040CA
:1052B400001C004000200040004001400044014028
:1052C4000048014080B483B000AF78607B68DB683D
:1052D40003F40053B3F5005F0CBF01230023DBB2DA
:1052E40018460C37BD4680BC704780B483B000AF0D
:1052F400786039607B681B6923F440523B681A4329
:105304007B681A6100BF0C37BD4680BC704780B40F
:1053140083B000AF786039607B685B6923F44072C6
:105324003B681A437B685A6100BF0C37BD4680BC9A
:105334007047000080B485B000AFF860B9607A604F
:105344003B607B68B3F5004F52D1BA6813469B00AB
:1053540013449A001A443B685B00B2FBF3F34F4AD0
:10536400A2FB03235B099BB21B0199B2BA681346E3
:105374009B0013449A001A443B685B00B2FBF3F2AF
:10538400464BA3FB02035B09642000FB03F3D31A1F
:10539400DB003233414AA2FB03235B099BB25B006F
:1053A4009BB203F4F8739BB20B4499B2BA681346E8
:1053B4009B0013449A001A443B685B00B2FBF3F26F
:1053C400364BA3FB02035B09642000FB03F3D31AEF
:1053D400DB003233314AA2FB03235B099BB203F0A7
:1053E40007039BB20B449BB21A46FB689A604FE0DA
:1053F400BA6813469B0013449A001A443B689B0006
:10540400B2FBF3F3254AA2FB03235B099BB21B0106
:1054140099B2BA6813469B0013449A001A443B6835
:105424009B00B2FBF3F21D4BA3FB02035B09642058
:1054340000FB03F3D31A1B013233184AA2FB0323E4
:105444005B099BB203F0F0039BB20B4499B2BA68B8
:1054540013469B0013449A001A443B689B00B2FB1A
:10546400F3F20E4BA3FB02035B09642000FB03F37E
:10547400D31A1B013233094AA2FB03235B099BB2F3
:1054840003F00F039BB20B449BB21A46FB689A606D
:1054940000BF1437BD4680BC704700BF1F85EB5169
:1054A40080B588B000AF786039600123FB770023B2
:1054B400BB617868FFF706FF0346002B57D17B6872
:1054C400DB6823F4164323F00C033A6851683A6806
:1054D400D26811433A68126911433A6892690A43DF
:1054E4001A437B68DA603B689B6819467868FFF763
:1054F400FCFE3B685B6919467868FFF708FF07F113
:1055040008031846FFF754FD7B681B4A934202D1F7
:105514007B69BB611AE07B68184A934202D13B69FC
:10552400BB6113E07B68164A934202D13B69BB61BD
:105534000CE07B68134A934202D13B69BB6105E0EE
:105544007B68114A934201D13B69BB61BB69002B63
:105554000DD03B681B68002B09D00023FB773B6808
:105564009A693B681B68B9697868FFF7E3FEFB7FBB
:1055740018462037BD4680BD003801400044004035
:1055840000480040004C00400050004080B483B00C
:1055940000AF786039607A683B68B2FBF3F3074A7E
:1055A400013B5360054B00229A60044B05221A60AC
:1055B40000BF0C37BD4680BC704700BF10E000E060
:1055C40080B582B000AF78604FF47A717868FFF7E5
:1055D400DDFF00BF0837BD4680BD000080B483B046
:1055E40000AF7860034A7B68136000BF0C37BD4688
:1055F40080BC70473C02002070B500260C4D0D4C59
:10560400641BA410A64209D100F028F800260A4D14
:105614000A4C641BA410A64205D170BD55F8043B86
:1056240098470136EEE755F8043B98470136F2E710
:105634003861000838610008386100083C610008DE
:105644000A44914200F1FF3300D1704710B511F8BC
:10565400014B914203F8014FF9D110BDF8B500BFD9
:10566400F8BC08BC9E467047F8B500BFF8BC08BC3F
:045674009E46704797
:1056780044454255473A200073697A653A2000004C
:1056880076616C3A200000004661696C20746F20D6
:105698007265616420616464726573733A20000006
:1056A800454570726F6D56616C7565206973203A57
:1056B80020000000464C4153485F424153452B317E
:1056C8003032342A313233203A20000043616C6989
:1056D80062726174696F6E20777269746520746F85
:1056E80020466C617368207375636365737320006B
:1056F80043616C6962726174696F6E207772697454
:105708006520746F20466C617368204661696C2C53
:105718002074727920616761696E2E2E2E20000038
:10572800435243206973203A2000000053697A6588
:10573800206973203A20000053657474696E67739A
:1057480020777269746520746F20466C61736820D5
:105758007375636365737320000000005365747488
:10576800696E677320777269746520746F20466C60
:10577800617368204661696C2C20747279206167B6
:1057880061696E2E2E2E200073746174656F7574B6
:10579800453A2000446174615768656E506F7765BB
:1057A800724F666620777269746520746F20466C44
:1057B800617368207375636365737320000000006C
:1057C800446174615768656E506F7765724F66669D
:1057D80020777269746520746F20466C6173682045
:1057E8004661696C2C2074727920616761696E2E3C
:1057F8002E2E2000466163746F7279577269746542
:10580800546F466C6173685F435243004643616C52
:105818006962726174696F6E207772697465207449
:105828006F20466C617368207375636365737320BA
:10583800000000004643616C6962726174696F6EB2
:1058480020777269746520746F20466C61736820D4
:105858004661696C2C2074727920616761696E2ECB
:105868002E2E200046435243206973203A20000020
:105878004653697A65206973203A20004653657457
:1058880074696E677320777269746520746F204637
:105898006C6173682073756363657373200000001F
:1058A8004653657474696E677320777269746520EE
:1058B800746F20466C617368204661696C2C207493
:1058C800727920616761696E2E2E2E20000000001B
:1058D80046446174615768656E506F7765724F66AC
:1058E8006620777269746520746F20466C617368EE
:1058F8002073756363657373200000004644617408
:10590800615768656E506F7765724F66662077726B
:1059180069746520746F20466C61736820466169FC
:105928006C2C2074727920616761696E2E2E2E208E
:105938000000000043616C6962726174696F6E57A0
:1059480072697465546F466C6173682000000000CA
:1059580043616C6962726174696F6E466163746FEA
:1059680072795772697465546F466C617368200068
:1059780043616C6962726174696F6E5265616446F5
:10598800726F6D466C6173682000000043616C693A
:1059980062726174696F6E5265616446726F6D46BA
:1059A8006C617368466F725665726966792000008B
:1059B80053657474696E67735772697465546F467A
:1059C8006C6173682000000053657474696E6773B6
:1059D800466163746F72795772697465546F466C67
:1059E800617368200000000053657474696E677302
:1059F8005265616446726F6D466C61736820000081
:105A080053657474696E67735265616446726F6D2D
:105A1800466C617368466F725665726966792000D4
:105A280057726974652043206D6148203A20000050
:105A3800446174615768656E506F7765724F66662A
:105A48005772697465546F466C6173682000000072
:105A5800446174615768656E506F7765724F66660A
:105A68005F466163746F72795F5772697465546FCA
:105A7800466C617368200000446174615768656E04
:105A8800506F7765724F66665265616446726F6DD6
:105A9800466C617368200000446174615768656EE4
:105AA800506F7765724F66665265616446726F6DB6
:105AB800466C617368466F72566572696679200034
:105AC80079310000526561642066726F6D2045452A
